:020000040800F2
:10000000000008201D9D0008519D00088D6C00080F
:10001000956C00089D6C0008A56C000800000000AD
:1000200000000000000000000000000085710008D2
:10003000519D000800000000277200083772000878
:10004000519D0008519D0008519D0008519D0008D8
:10005000519D0008519D0008519D0008519D0008C8
:10006000519D0008519D0008519D0008519D0008B8
:10007000519D0008519D0008519D0008519D0008A8
:10008000519D0008519D0008519D00084DCC00086D
:1000900041CC0008519D000851CC0008519D00083A
:1000A000519D0008519D0008519D0008519D000878
:1000B000519D0008519D0008519D0008519D000868
:1000C000519D0008519D0008519D0008519D000858
:1000D000519D0008519D0008519D0008519D000848
:1000E000519D0008519D0008519D0008519D000838
:1000F000519D0008519D0008519D0008519D000828
:10010000519D0008519D0008519D0008519D000817
:10011000519D0008519D0008519D0008519D000807
:10012000519D0008519D0008519D0008519D0008F7
:10013000519D0008E3530008519D000861CC000860
:1001400055CC0008519D000865CC0008519D000861
:10015000519D0008519D0008519D0008519D0008C7
:10016000519D0008519D0008519D0008519D0008B7
:10017000519D0008519D0008519D0008000000009D
:10018000519D0008519D0008519D0008519D000897
:10019000519D0008519D0008519D0008519D000887
:1001A000519D0008519D0008519D0008519D000877
:1001B000519D0008519D0008519D0008519D000867
:1001C000519D0008519D000800000000519D00084D
:1001D000519D0008519D0008519D0008519D000847
:1001E00075CC000869CC0008519D000879CC000846
:1001F000519D0008519D00080348044B834202D0E2
:10020000034B03B118477047EC0E0020EC0E0020A2
:100210000000000005480649091A891001EBD17158
:10022000491002D0034B03B118477047EC0E002071
:10023000EC0E00200000000010B5064C237843B9F6
:10024000FFF7DAFF044B13B10448AFF3008001233A
:10025000237010BDF00E002000000000C80402084A
:1002600008B5054B1BB105490548AFF30080BDE853
:100270000840FFF7CFBF00BF00000000F40E0020D1
:10028000C8040208154B002B08BF134B9D46A3F56D
:10029000803A00218B460F461348144A121A13F075
:1002A0006FFF0F4B002B00D098470E4B002B00D058
:1002B00098470020002104000D000D48002802D0BE
:1002C0000C4806F02CF913F01BF92000290006F069
:1002D0009DFE06F021F900BF000008000000082084
:1002E000000000001D700008F00E0020046E0020C9
:1002F0001F65000800000000C36810B504460BB17C
:100300009B689847204610BD884238B504460D4684
:100310000AD0FFF7F1FF3CB1EB681BB15B682946DF
:1003200020469847EB68E360204638BD036870B507
:100330000446051D7BB90D4E4FF0FF31306808F0C3
:1003400001FA236823B915B1284606F049FC256057
:10035000306808F013FA2368AB4204D05E220449E7
:10036000044805F0B3FD206870BD00BF405900206F
:100370000CCD01086ECD0108C36810B504460BB161
:100380009B689847204610BDC36810B504462BB93A
:1003900040F239220449054805F098FDE3682046FB
:1003A0001B68BDE81040184782CD0108E0CD010868
:1003B0007047704710B50446182110F013FE204610
:1003C00010BD10B50446182110F00CFE204610BDDB
:1003D00003690922002B14BF0123022310B5037502
:1003E00086B007230446CDE901234368039383685D
:1003F0000493037B8DF81430437B01A88DF81530EE
:100400000CF06EFD08B10023237506B010BD00008E
:10041000074B10B503600023044603734373C0E920
:100420000133044B0361FFF7D3FF204610BD00BF2B
:10043000F0CD010830CF010830B470B1D2E90043EB
:1004400003F0010204B942B15B10C5180AB1C358E8
:100450001C592846234630BC184730BC7047000062
:1004600070B5094D04462B6883420CD0061D00234D
:10047000D0E9361230460DF069FBD4F8E010304672
:100480000DF0A0FB2C6070BD980F0020036870B5C4
:100490009B6804460D46164698470B4B1B68A342C3
:1004A000C4E936560BD1002332462946201D0DF0F3
:1004B0004DFB23682046DB68BDE8704018472046A6
:1004C000FFF7CEFFF5E700BF980F0020036870B577
:1004D0009B6804460D469847094BC4F8E0501B68DA
:1004E000A34209D12946201D0DF06CFB236820464C
:1004F000DB68BDE8704018472046FFF7B1FFF5E71D
:10050000980F002038B5036804460D469B6898474D
:100510002046FFF7A5FF2946201D0DF071FB23683B
:1005200005462046DB689847284638BDF7B51F4684
:10053000036804460D469B68164698472046FFF719
:100540008FFF94F8E430294632460193201D089B22
:1005500000933B460DF085FB236805462046DB688B
:100560009847284603B0F0BD036870B504469B6801
:100570000D4698472368204684F8E450DB68BDE8C0
:1005800070401847044B10B5044640F8C43BFFF7D1
:10059000F3FE204610BD00BF10CE010810B5044682
:1005A000FFF7F0FFE821204610F01CFD204610BDAB
:1005B00038B5044648B100F15805AC4205D02C3D91
:1005C00005F11800FFF7D8FEF7E7204638BD000018
:1005D0002DE9F04F05469846424B85B004460E463D
:1005E00045F8043B174600219C22284613F0C8FD1D
:1005F000002304A904F1A402CDE9023311E90300A8
:1006000082E803003849C4F8AC1048F20701C4F886
:10061000B010C4F8B8303549C4F8B440C4F8BC20B0
:10062000334AC4F8C020C1F88430BFF34F8FD1F8EB
:10063000803043F6E07EC3F3C900C3F34E334FEA84
:10064000807C5B0103EA0E0B6246814609F1FF39AB
:100650004BEA020A02F14042B9F1FF3FC1F874A22D
:10066000F4D1203B13F1200FECD1BFF34F8FBFF338
:100670006F8FBFF34F8FBFF36F8F4FF0000AC1F83A
:1006800050A2BFF34F8FBFF36F8FBFF36F8FBFF3D6
:100690004F8F04F1C40B10225146584613F070FDE1
:1006A000082384F8D4A03A4684F8D5A0314684F8CB
:1006B000E4902846C4E9363A0E4BC4F8E030BDF960
:1006C0003830009343460DF051F92046FFF7C8FE3D
:1006D00004E05846FFF750FE11F080F8204605B0C0
:1006E000BDE8F08F10CE010801A090E800ED00E019
:1006F0003904000840420F0038B50025044628227E
:10070000294640F8045B13F03BFD1022294604F112
:10071000180013F035FD204638BD000008B5044828
:10072000FFF704FE4FF0FF31BDE8084006F060BA65
:10073000700F002008B50348FFF7F8FDBDE808403A
:1007400006F060BA700F002010B50A4C2046FFF783
:10075000D3FF04F12C00FFF7CFFF00232046064A09
:10076000A3650649E36584F86030BDE8104005F0F4
:10077000D1BE00BF0C0F0020F8010020B105000819
:1007800003681B69184703689B69184703689B6ADD
:10079000184700290CBF6FF0180000207047012097
:1007A000704711207047704700F0BCB8A0F1B4004A
:1007B000FFF7FABF00F0B9B8A0F1B400FFF7FABF35
:1007C0004FF0FF31CC3006F013BAA0F1B400FFF7C0
:1007D000F7BFCC3006F016BAA0F1B400FFF7F9BFAE
:1007E0000C4B03F1080210B5026003F128028833B4
:1007F0000446C0F8B420CC3040F8143C06F008FAA7
:1008000004F1B40005F048FB204600F0A7F92046AB
:1008100010BD00BF28CE0108A0F1B400E0E7A0F1B0
:10082000B800DDE710B50446FFF7DAFFF0212046F7
:1008300010F0D8FB204610BDA0F1B400F2E7A0F103
:10084000B800EFE770B504461E46049B04F1B405FA
:1008500000F0C6F83146284605F0E4FA0C4B04F1E6
:10086000CC0003F1200223608033C4F8B420C4F824
:10087000B83006F0B5F908E0284605F00DFB204633
:1008800000F06CF910F0AAFFF9E7204670BD00BF38
:1008900030CE0108704730B470B1D2E9004303F0A4
:1008A000010204B942B15B10C5180AB1C3581C5902
:1008B0002846234630BC184730BC704770B501F15C
:1008C0000906044600EB0616F36893B10D014319BF
:1008D000D3F89C302BB940F239220649064805F07E
:1008E000F5FA2C443046D4F89C30BDE870401B68C3
:1008F000184770BDB8CE0108E0CD010870B50546B7
:100900000E46044655F84C3B1B689847284631462E
:100910000CF01CFE2368C4F8B06020465B68BDE89C
:10092000704018474C300CF0BFB810B50C464C3036
:100930000CF0CCF8204610BDF7B500230D4602A9F7
:100940000246041DCDE9003311E9030084E80300E9
:100950002049D16048F2070111611F499361556137
:10096000D46111621D49C1F88430BFF34F8FD1F8B3
:10097000803043F6E077C3F3C905C3F34E33AE07C7
:100980005B0103EA070E3446284601384EEA040CA0
:1009900004F14044B0F1FF3FC1F874C2F5D1203BEF
:1009A00013F1200FEDD1BFF34F8FBFF36F8FBFF364
:1009B0004F8FBFF36F8F0023C1F85032BFF34F8FBB
:1009C000BFF36F8FBFF36F8FBFF34F8F104603B02E
:1009D000F0BD00BF01A090E89708000800ED00E01E
:1009E0002DE9F04F044687B093463A4A002504F1BA
:1009F0002C08009104F13C0940F8042B2146019396
:100A000004F14C07FFF798FF1022294684F828507C
:100A100084F82950404613F0B3FB04F190061022ED
:100A20002946484604F1A00A13F0AAFB44222946AD
:100A3000384613F0A5FB10222946304613F0A0FBE0
:100A400010222946504613F09BFB019B2946102299
:100A5000C4F8B03002A813F093FB02A93046FFF7A8
:100A600053FC02A8FFF748FC2946102202A813F005
:100A700087FB02A95046FFF747FC02A8FFF73CFCA2
:100A80005A46009938460CF0A5FDD4F8B010384607
:100A90000CF05CFD2246104938460BF077FF14E05D
:100AA00002A8FFF729FC46B1B034B44205D0103C8F
:100AB0002046FFF721FCF8E7F5E74846FFF75CFC26
:100AC0004046FFF759FC10F089FE204607B0BDE80C
:100AD000F08F00BF20CF0108BD0800082DE9FF41BD
:100AE000164603680446884606F109051B689847C0
:100AF00004F14C0705F06AFAD8F80C2004EB051550
:100B0000EB68A2B10BB904F037FE41462846FFF767
:100B1000FBFB0122314638460BF044FF05F06CFA2E
:100B2000236820465B68984704B0BDE8F0810BB1AC
:100B300004F044FE00211022684613F021FB6946B0
:100B40002846FFF7E1FB6846FFF7D6FB0022E1E706
:100B50006846FFF7D1FB10F041FE00007FB51A4B4D
:100B60000446102200210360684613F009FB0022AE
:100B700069462046FFF7B2FF6846FFF7BDFB10222B
:100B80000021684613F0FCFA012269462046FFF76F
:100B9000A5FF6846FFF7B0FB14F1900608D004F1FA
:100BA000B005AE4204D0103D2846FFF7A5FBF8E79C
:100BB00004F13C00FFF7E0FB04F12C00FFF7DCFB45
:100BC000204604B070BD00BF20CF010810B5044618
:100BD000FFF7C4FFB421204610F004FA204610BDF0
:100BE00010B5044605F0F2F923681BB1237F0BB161
:100BF00004F0E4FD0023236005F0FEF9204610BD5B
:100C000010B5044605F0E2F9236853B9237F0BB110
:100C100004F0B2FDA06904F0A7FF0123C4E90201BA
:100C20002360BDE8104005F0E7B9F8B5044605F0CB
:100C3000CDF9236873B1A06904F096FFD4E90245A9
:100C4000041B61EB050526462F4605F0D5F9304615
:100C50003946F8BD00260027F7E72DE91848044675
:100C600005F0B4F92046FFF7E0FFD4E9042310EBC8
:100C7000020B41EB030C2368C4E904BC1BB1237FC6
:100C80000BB104F09BFD00232360BDE8184805F07C
:100C9000B3B92DE9F041064605F098F9D6E9047894
:100CA0003046FFF7C2FF3C1848EB010505F0A4F9F8
:100CB00020462946BDE8F08108B5FFF7EAFF4FF46A
:100CC0007A7200231AF0FCFE08BD10B5044605F048
:100CD0007DF9A06904F048FF00220023C4E9020165
:100CE000C4E90423BDE8104005F086B900230022C2
:100CF00010B5036000230446C0E90223C0E90423C1
:100D000004F046FF0123A06120462377FFF7DDFFB3
:100D1000204610BD0368012200211B6918470368A3
:100D200000221B691146184700F065B910B504464A
:100D300000F0B6F804F14C00FFF71EFB204610BD92
:100D4000F8B500F14C05174604460E461022002166
:100D5000284613F015FA27B93146204600F08EF8E0
:100D60000AE03A463146204600F05BF804E02846A7
:100D7000FFF702FB10F032FD2046F8BD2DE9F041EF
:100D8000036900F144080E7905460C4617469E405B
:100D9000C368CB1A1E434B699B1A002BACBFD318F8
:100DA000131C4B61437A40464B7100F0EAF9284628
:100DB000036873B359696269A1EB020CBCF1000FBF
:100DC00024DB914225D19B68A36013B104F1080292
:100DD0001A610268234643F80C2F1361AB6A046062
:100DE00020616BB195F8242052B12A68A24207D144
:100DF000E2682AB96169E86AC91B21EAE17198478A
:100E0000404600F0C0F93046BDE8F08103F108002B
:100E1000CEE7A36013B104F108021A610023E36076
:100E2000DCE738B5002304460D46C260C0E9043350
:100E3000FDB922622560C4E9065100F09DF9657292
:100E4000606004F13000257284F82450C4E90A552A
:100E500000F09BF900280BDB04F1440000F08EF950
:100E6000002805DB04F1480000F088F900EAE07092
:100E700038BD23696D0801332361D9E770B5054694
:100E800008460E4612F02EFD044630B102463146A9
:100E90002846FFF7C6FF6C6170BD4FF0FF30FBE7DF
:100EA00070B504460668B6B9A36A1BB14FF0FF31AE
:100EB000E06A984704F1480000F062F904F1440048
:100EC00000F05EF904F1300000F074F96069BDE8EB
:100ED000704012F00FBD25680DB9B668E3E7EB6905
:100EE00013B105F124009847ED68F5E7F8B500F176
:100EF000480706462731384621F0030500F041F93E
:100F000006F11803B46984B9F3699D4227D8346A9D
:100F10005B1B3846F361621901233262256023713D
:100F200000F031F964B92046F8BD2268954212D824
:100F3000E2686AB11A60A3689360384600F023F94A
:100F400000234FF0FF32E361C4E905322434EAE7BD
:100F5000A2681A60F1E704F10803A468D3E73846F1
:100F600000F011F9DFE7F8B551F8083C05460C46EA
:100F7000A1F124070BB10846984705F14806304611
:100F800000F0FFF805F11802AB69ABB1186854F82E
:100F9000241C88420CD30FD144F8183C13689B687A
:100FA00044F81C3C30461760BDE8F84000F0EBB850
:100FB00003F108029B68E8E7002344F8183C136833
:100FC000EEE770B5144605460E4600F0D5F854F825
:100FD000103C0246A4F1240144F8046C0344284662
:100FE00044F8103CFFF7CAFE044605F1300000F05B
:100FF000E4F8204670BD2DE9F347044688460027F3
:1010000000F0BAF804F14406054608EB000984F83C
:101010002470304600F0B5F8637A01A90133637299
:1010200063685B1B002B2368D8BF656001931BB10D
:101030005A69521B002A31DD236003B11C610F6025
:10104000304600F0A0F8019B01A95BBB019D002D7B
:1010500037D100F091F8B8F1000F824656DBA9EBCA
:101060000005002D54DCA36A9BB1304600F089F8DE
:10107000A36A43B1226832B15169E06AA1EB0A0167
:1010800021EAE17198470123304684F8243000F0CA
:101090007AF80023237202B0BDE8F08703F108015B
:1010A0009B68C4E7D3F808C01A460025D06895604D
:1010B000154620B90A6003F108016346C5E70246F8
:1010C000F4E72B6AD5F808A013B105F1240098477E
:1010D000AA69002A0BDB6B6913446B6100F04CF8C2
:1010E000294602462046FFF749FE5546AFE72B79D1
:1010F00005F12401226920460133DBB213FA02F222
:1011000008BF01232B71FFF72EFFEEE74FF0FF35ED
:10111000304600F036F823683BB15969A1EB0A016B
:1011200021EAE1718D4228BF0D46304600F02BF8D0
:10113000294604F1300000F044F8237A7BB13046B0
:1011400000F01FF8237A3BB100233046237202B02F
:10115000BDE8F04700F017B8304600F014F800F092
:101160000BF8054655E740F8101C704740F80C1C7A
:10117000704740F8081C704706F0AEBC002070476E
:10118000704704F023BF04F037BF1FB50446102298
:101190000021684612F0F4FF231D684602931023D5
:1011A000039306F00FFA2060B0FA80F04009404245
:1011B00004B010BD006806F0A5BA0121006806F071
:1011C0001BBA08B5002241EAE1730068012106F06C
:1011D00053FA431E5842584108BD034610B107C98F
:1011E00083E807007047704710B44468034681687D
:1011F0006210E4071B6801EB020048BF8A585DF8E3
:10120000044B48BFD35818474FF0FF31FFF78CBD50
:101210002DE9F347044605469A46174B04F140066C
:10122000884645F8043B002191462846102212F0DA
:10123000A7FF0021304605F017FD04F1540738469A
:1012400005F0CEFC0A9B4A46414620460093534691
:1012500008F096FB0CE0384605F0DAFC304605F065
:101260000EFD2846FFF748F810F0B8FAF6E7F8E761
:10127000204602B0BDE8F087B8E70108314810B554
:10128000037886B0BFF35B8FDB0710D405F05CF901
:1012900068B12D4A4FF480712C48FFF751FD294861
:1012A00005F07CF92A4A2B49284805F033F92A48E9
:1012B0000378BFF35B8F13F0010412D105F044F9FA
:1012C00078B100944FF48062244B18212448FFF732
:1012D0009FFF214805F062F91D4A2249204805F088
:1012E00019F91F4808F07AFB10F0EF0402D01748F4
:1012F00006B010BD2146102202A812F041FF1A4B81
:1013000002A91748CDE90234104B0493174B0593FB
:1013100008F0D0FB044602A8FEF7EEFF002CE6D052
:1013200013482A22134904F0D1FD0020E0E70548C4
:1013300005F050F910F052FA0748F9E702A8FEF755
:10134000DBFFF7E768140020C81400206C140020AD
:10135000F80100202D0D00089C0F002068100020CF
:10136000A00F0020659A00080912000830D001087B
:10137000A4D001083CD0010808B5FFF77FFF08BDE5
:10138000C36810B504460BB19B689847204610BD52
:10139000C36810B504460BB19B689847204610BD42
:1013A00038B5CB6804460D460BB15B689847EB68CF
:1013B0002046E36038BD08B5FEF79EFF08BD08B5BE
:1013C000FEF7E2FF08BD0368DB68184708B503684D
:1013D00003499B68984700280148D8BF002008BDF2
:1013E000C815002003689B69184703685B691847A4
:1013F00003681B69184738B5436804460D4643B96E
:101400000B6800F1080128469B6D984700B965609C
:1014100038BD6FF01500FBE710B50446406830B1E9
:101420000368A168DB6D98470023636010BD6FF00F
:101430001500FBE7044B10B50360044643680BB18D
:10144000FFF7EAFF204610BD28D1010810B5044679
:10145000FFF7F0FF0C2120460FF0C4FD204610BD21
:10146000436870B504460D4623B94A22054906482B
:1014700004F02CFD60682A46A1680368BDE870404E
:101480005B6E1847B3D0010819D10108436810B545
:10149000044623B950220549054804F017FD606849
:1014A000A1680368BDE810409B6E1847B3D00108DF
:1014B00019D10108436810B5044623B956220549DD
:1014C000054804F003FD6068A1680368BDE81040AA
:1014D000DB6E1847B3D0010819D10108436810B575
:1014E000044623B95C220549054804F0EFFC606816
:1014F000A1680368BDE810401B6F1847B3D001080E
:1015000019D10108436870B504460D4623B943223A
:101510000849094804F0DAFC40F20112002128468B
:1015200012F02EFE60682A46A1680368BDE870408C
:101530001B6E1847B3D0010819D10108024A026096
:101540000022C0E90122704728D1010870B50D467C
:101550004168044641B929680E6B00F1080128462C
:10156000B04700B9656070BD6FF01500FBE710B5BE
:101570000446406830B10368A1685B6B984700235C
:10158000636010BD6FF01500FBE70000044B10B561
:101590000360044643680BB1FFF7E9FF204610BD26
:1015A000D0D1010810B50446FFF7F0FF0C2120460A
:1015B0000FF018FD204610BD43682DE9F0410446A8
:1015C0000E46174623B943220649074804F07EFC1D
:1015D00060683246A16803689D6B3B46AC46BDE837
:1015E000F041604760D1010819D1010843682DE935
:1015F000F04104460E46174623B9492206490748DA
:1016000004F064FC60683246A1680368DD6B3B4609
:10161000AC46BDE8F041604760D1010819D101082E
:10162000436810B5044623B94F220549054804F024
:101630004DFC6068A1680368BDE810401B6C18474A
:1016400060D1010819D10108436810B5044623B9D7
:1016500055220549054804F039FC6068A168036813
:10166000BDE810405B6C184760D1010819D1010832
:1016700043682DE9F04104460E46174623B95B2224
:101680000649074804F022FC60683246A1680368F6
:101690009D6C3B46AC46BDE8F041604760D1010817
:1016A00019D10108436810B5044623B961220549E0
:1016B000054804F00BFC6068A1680368BDE81040B1
:1016C000DB6C184760D1010819D10108436810B5D7
:1016D000044623B967220549054804F0F7FB606812
:1016E000A1680368BDE810401B6D184760D1010870
:1016F00019D10108436810B5044623B96D22054984
:10170000054804F0E3FB6068A1680368BDE8104089
:101710005B6D184760D1010819D10108024A0260C7
:101720000022C0E901227047D0D101086FF02500E6
:1017300070476FF0250070476FF02500704700205C
:1017400070470368002210B49C6C0123A4465DF826
:10175000044B6047036810B49C6C0023A4461A46EF
:101760005DF8044B604703682DE9F0410446DB6CEB
:101770000D46984723688046294600229E6C2046E5
:101780000223B0472368064642469F6C2946002341
:101790002046B8473046BDE8F081704700207047CA
:1017A000036800225B6E184703682DE9F0419B6EC9
:1017B00004460E469847804640F2011005F04EF868
:1017C000236800250746DB6E31462046984723688C
:1017D0003A46314620461B6E9847002801DD013508
:1017E000F5E723684246314620465B6E9847384607
:1017F00040F201110FF0F6FB2846BDE8F081000031
:10180000034B10B504460360FFF7C0FE204610BD31
:1018100024D2010810B50446FFF7F2FF0C21204640
:101820000FF0E0FB204610BD2DE9F04105460C20ED
:101830000E461746984605F011F80446FFF76EFF6E
:101840000C4B29463A46204623604346FFF77EFE6E
:10185000054638B11CB1236820465B689847284686
:10186000BDE8F0813460FAE70C2120460FF0BAFBA6
:101870000FF0B4FF24D20108034B10B504460360F7
:10188000FFF7D8FD204610BD78D2010810B50446F8
:10189000FFF7F2FF0C2120460FF0A4FB204610BDFD
:1018A000F8B505460C200E46174604F0D7FF04464F
:1018B000FFF744FE0B4B29463A4620462360FFF7CC
:1018C0009AFD054630B11CB1236820465B689847F5
:1018D0002846F8BD3460FBE70C2120460FF082FB60
:1018E0000FF07CFF78D20108074B012210B50446A7
:1018F00040F8043B04F05EF9044B204603F1080273
:1019000084332260636010BDE4DC0108B0D20108BA
:1019100038B50446FFF72BFE05461CB12368204668
:101920005B689847284638BD38B50446FFF774FD14
:1019300005461CB1236820465B689847284638BD99
:10194000002070474FF0FF3070474288437800789E
:1019500043EA022340EA032070470B0A01704370F8
:101960000B0C090E8370C1707047024400F8011B14
:101970009042FBD17047024410B510F8013B11F8BA
:10198000014B9042A3EB040301D0002BF5D0184685
:1019900010BD036A0239023B8B4283BF4389406B0F
:1019A00001FB03000020704700F10B01002310F839
:1019B000012B02EBC312884202EB530303F0FF0337
:1019C000F5D1184670470000036810B5044653B1BE
:1019D00019460A4611F8010B1F2810D93A28F8D1E8
:1019E000591C8A4202D04FF0FF3007E01B78303B91
:1019F000D9B20329F7D801321846226010BD014B35
:101A00001878FBE7DC16002038B50D46044618B9F7
:101A1000092000232B6038BD0368002BF8D01A780A
:101A2000002AF5D08188DA889142F1D1587802F005
:101A300023FE10F00100EBD12368EBE701380A44E4
:101A400011F8013B914200F8013FF9D1704703289A
:101A5000CA7E8B7E08BF487D43EA022302BF0A7D0F
:101A600042EA002243EA02431846704713128A767C
:101A7000CB760378032B01BF120C0A7512124A753C
:101A8000704738B5C37804460BB9002038BDD0E99B
:101A90000E210123407802F01BFE80B9A16BE36A9E
:101AA000626ACB1AE0709342EFD2A378022BECD19A
:101AB0000A440123E16B607802F00AFEE5E70120A9
:101AC000E4E72DE9F04104460E46FFF7DAFF05464C
:101AD000002850D131462046FFF75BFF2946A0631E
:101AE0008046A289E06BFFF740FF6389A5895D43CB
:101AF000B5F5004F28BF4FF40045A389AB4206D28D
:101B0000284602F0B5FD074610B96D08F5E7002735
:101B1000A389AB421FD22A46002138460026FFF790
:101B200024FFA389B5FBF3F56389B34208D838468F
:101B300002F0A0FD6089801B18BF0120BDE8F08184
:101B40002B4606EB08023946607802F0C1FD0028FA
:101B5000EDD12E44E8E7E56B00266389B342E9D96D
:101B6000012306EB08022946607802F0B1FD002847
:101B7000E0D10136F1E70120E0E7836B8B4270B5DD
:101B800006460D4611D0FFF77CFF044658B92A4699
:101B90000123F16B707802F07DFD00281CBF4FF02F
:101BA000FF350124B563204670BD0024FBE700002B
:101BB000002310B5C3704FF0FF3304468363FFF773
:101BC000DCFF18BBE46B94F8FF2194F8FE3143EA84
:101BD00002234AF6552293421AD12378EB2B03D0E5
:101BE0001833DBB2012B15D803220B4904F1360060
:101BF000FFF7C1FE48B10522084904F15200FFF782
:101C0000BAFE002814BF0220002010BD0420FCE70B
:101C10000320FAE70220F8E7D9D30108DDD3010851
:101C200000232DE9F04F0B6085B00F461546FFF7F6
:101C3000CBFE061EC0F2D880A44B53F82640002CE1
:101C400000F0D4803C6005F0FE05237873B1607825
:101C500002F012FDC10709D4002D00F0C98010F078
:101C6000040000D00A2005B0BDE8F08F0023F0B2D8
:101C70002370607002F002FDC20700F1BB800DB15D
:101C80004307EFD404F10C020221607802F04CFD0E
:101C900008B10120E7E7A089A0F50073B3F5606FF4
:101CA000F7D8431E0342F4D1E36B002B73D000211D
:101CB0002046FFF77DFF02287BD1E16B002501F56F
:101CC000E37111F8040C10B10846FFF73EFE4DF821
:101CD000250001351031042DF3D100255DF8258054
:101CE000B8F1000F5ED041462046FFF761FF0128A2
:101CF00059D8E56BA7892A7BEB7A43EA02239F42F6
:101D00005CD1EB7D95F8169059EA032904D105F1D1
:101D10002400FFF71AFE8146C4F82490297C4B1E4C
:101D2000A170012B4AD86E7BB3B26381002B45D0E2
:101D3000731E334242D1AB7C95F811A04AEA032AC4
:101D40007B09A4F808A0BAFBF3FB03FB1BA39BB21F
:101D5000A3BB2B7DE87C50EA032003D105F12000D2
:101D6000FFF7F3FDEB7BAA7B52EA032226D009FBA7
:101D700001FC0BEB0203634498421FD3C11AB1FB71
:101D8000F6F1D9B15248814218D84FF6F570814228
:101D900032D9032636E002F06BFCE063002886D1DE
:101DA000112060E703200135042D97D1042805D1C7
:101DB0006FE704283FF46DAF012801D90D2052E7E9
:101DC0004FF0000895E7BAF1000FF7D0022E4FEA66
:101DD000410062441CBF401801F0010122630CBFA6
:101DE000014601EB500127E00B203CE70C203AE7CD
:101DF000284638E7032036E740F6F576B14294BF2F
:101E000001260226023142444344032E2162C4F8D3
:101E10002880E2626363D6D195F82B2095F82A30AA
:101E200053EA0223CAD1BAF1000FC7D105F12C0041
:101E3000FFF78BFD206389007B1E1944B1FBF7F788
:101E40004F45BBD84FF0FF33032EC4E905334FF0A5
:101E50008003237130D195F8312095F8303043EA72
:101E60000223012B28D108F101012046FFF785FE4E
:101E700010BBE16B207191F8FF2191F8FE3143EA2C
:101E800002234AF65522934216D10846FFF75DFD1C
:101E9000104B984210D101F5F270FFF756FD0E4B32
:101EA000984209D101F5F470FFF74FFDA06101F5EB
:101EB000F670FFF74AFD6061084A0020267013881B
:101EC000E06101339BB21380E380CCE6CC160020A6
:101ED000F5FFFF0F5252614172724161CA16002034
:101EE00001292DE9F84304460D46174640F2828049
:101EF000036A8B427ED90378022B45D0032B5AD03C
:101F0000012B77D101EB51098389C16AB9FBF3F346
:101F10001944FFF732FE064660BBA38915F00105A0
:101F2000E06B09F10108B9FBF3F203FB12920FBF5A
:101F3000FBB2835C03F00F013B011CBF03F0F00315
:101F40000B4383540123E16A2046E370A389B8FB65
:101F5000F3F31944FFF711FE064658B9A389E06B65
:101F6000B8FBF3F203FB12823DB1C7F307178754A6
:101F70000123E3703046BDE8F883835CC7F3032791
:101F800023F00F031F43F2E783895B08B1FBF3F3F0
:101F9000C16A1944FFF7F1FD06460028EAD1A2897B
:101FA0006D00B5FBF2F302FB1355E36B5F555A1955
:101FB0003F125770DCE783899B08B1FBF3F3C16ADA
:101FC0001944FFF7DAFD06460028D3D1A289AD00F7
:101FD00027F07047B5FBF2F302FB1353E56B1D448A
:101FE0002846FFF7B2FC00F0704128463943FFF75E
:101FF000B4FCBDE70226BDE70129F8B504460E464C
:1020000064D9036A994261D20378022B30D0032B42
:1020100045D0012B5AD101EB51058389C16AB5FB2B
:10202000F3F31944FFF7A9FD10B14FF0FF30F8BDED
:10203000A1896F1C2046B5FBF1F301FB1355E36B3F
:10204000B7FBF1F15D5DE36A1944FFF796FD0028E7
:10205000EBD1A289B7FBF2F302FB1373E26BD05C06
:10206000F30745EA00204CBF0009C0F30B00DEE790
:1020700083895B08B1FBF3F3C16A1944FFF77DFD67
:102080000028D2D1A2897600B6FBF2F302FB1366D8
:10209000E36B9A19985D527840EA0220C7E783897A
:1020A0009B08B1FBF3F3C16A1944FFF766FD0028F2
:1020B000BBD1A389B600B6FBF3F003FB1066E06B5F
:1020C0003044FFF742FC20F07040B0E70120AEE75B
:1020D000B1F5001FF8B505460E4601D30220F8BD44
:1020E000CA06FBD1046829618268EAB92378022B09
:1020F00001D9236BCBB92389B3EB561FEED9236BE0
:10210000AB616A61AA69002AE8D0A3890020B6FB06
:10211000F3F31344AB61A289B6FBF2F302FB136342
:10212000E66B1E44EE61DAE713466289A7895743DE
:102130001A46BE4211460CD32868FFF75DFF431CC8
:1021400002460BD00128C9D9236A8342C6D9F61B9F
:10215000EFE72046FFF71DFCA861D2E70120BEE7AC
:102160002DE9F041804605680F4649B96E69CEB148
:102170002B6AB34298BF0126AB69ABB9002409E0D2
:102180002846FFF739FF0128044658D9421C04D1DC
:102190004FF0FF342046BDE8F0812B6A8342F9D826
:1021A0003E46E9E70126E7E7BE4215D12B6A741CDB
:1021B000D8F800009C4228BF02242146FFF71CFFEC
:1021C00001283CD0431CE3D0D8B16B69012B03D963
:1021D0002A6A934238BF1E46344601342B6AA34212
:1021E00002D8012ECAD902242146D8F80000FFF7F0
:1021F00003FF40B1012822D00130C9D0B442ECD154
:10220000BCE7002CE8D04FF0FF3221462846FFF70C
:1022100067FE90B957B92A6AAB69023A6C6193427A
:102220000FD92B7943F001032B71B3E722463946CE
:102230002846FFF755FE0028EDD00128A8D001243C
:10224000A8E7013BAB61ECE72DE9F3410D460746FA
:102250001146012D48D90468236AAB4244D942B9DA
:10226000A84629463868FFF7C7FE064658B9002039
:1022700006E04FF0FF322046FFF732FE0028EFD095
:1022800002B0BDE8F08101282ED0431C2ED00022E0
:1022900029462046FFF724FE0028F1D1226AA369CF
:1022A000023A934205D20133A361237943F001033B
:1022B00023716B1CB34212D041462046FFF769FBE5
:1022C000294600902046FFF764FB6389B0466A46C2
:1022D000013B042118440190607802F025FA236A3A
:1022E0003546B342BDD8C2E70220C9E70120C7E79F
:1022F0002DE9F04106690446884605682036B6F5A2
:10230000001F24BF00238361836983B1A989B6FBC1
:10231000F1F201FB1262002A3BD101334169836172
:1023200039B92B89B3EB561F33D80023A36104209E
:102330000DE0AA896B89B6FBF2F2013B1A4228D163
:102340002846FFF759FE0128074602D80220BDE8BB
:10235000F081421C01D10120F9E72B6A834212D897
:10236000B8F1000FE1D061692046FFF7F9FE07469A
:10237000D0B10128EAD0431CEDD001462846FFF732
:10238000A0FB0028E7D1676139462846FFF701FB2B
:10239000A06126610020AA89B6FBF2F302FB136359
:1023A000EE6B1E44E661D2E70720D0E72DE9F0414D
:1023B000C16A044605684B1C066918D1E5274FF031
:1023C0000108A1692846FFF7D8FB60B9E3691F70CF
:1023D00085F803802369B3420DD201462046FFF7FA
:1023E00087FF0028EDD0042808BF022003E0FFF794
:1023F0006FFE0028E2D0BDE8F08100002DE9F04F2B
:10240000002185B00446D0F800A0FFF761FE8046A9
:10241000002840F093804FF0FF094FF0FF334E4605
:10242000E362A1695046FFF7A8FB8046002840F010
:102430008580E5692F78002F00F08480EA7AE52F07
:1024400002F03F03A37103D0120705D50F2B05D06F
:102450004FF0FF33E36258E00F2B5DD194F82B303F
:10246000580648D479064ED5236907F0BF0795F87A
:102470000D90E3626B7B4B4547D1EB7EAE7E46EA27
:10248000032636B2002E40D195F800800121DAF8FB
:1024900010B008F03F0808F1FF334FF00D0808FBBB
:1024A00003F82A4BF25CAB185878AB5C43EA002384
:1024B00069B3B8F1FE0F28D81846039301F0C6FDA2
:1024C00008F1010202903BF81800019201F0BEFDF4
:1024D0000299814219D1039B019A1946904601360F
:1024E0000D2EDED12B785A0603D511B13BF81830EA
:1024F0005BB9013FFEB200212046FFF7F9FE80469E
:1025000000288ED01AE0BE42B4D0FF26F3E74FF683
:10251000FF729342E3D0F8E726B92846FFF744FA62
:1025200048450BD094F82B30DB0791D40B2204F1F3
:1025300020012846FFF71FFA002889D1404605B040
:10254000BDE8F08F4FF00408F8E700BFCCD30108D6
:102550002DE9F04F90F82B4089B0054614F0A00407
:102560007DD107683B6933F814200AB10134FAE7DA
:1025700005F120060C2205A83146FFF75FFA9DF809
:102580001F30DB0774D540234FF00109DFF81882B4
:1025900085F82B300B2205A93046D7F810A0FFF79D
:1025A0004DFAB9F1050F13D9AAF102024B4632F8E0
:1025B000021F71B1102001F0010C49080CEB43031C
:1025C00013F4803F18BF83EA08030138F3D1EEE724
:1025D0004B46072203F00F00013A00F13001392980
:1025E00088BF00F1370103A81B0910444170F1D1E5
:1025F00008A97E20114401F8140C9A4203D0F15C22
:10260000581C20291ED13344072A97BF08A920212E
:102610008918013298BF11F8141C03F8011B991B8B
:102620000729F1D92846FFF7E9FE8246D0B909F11A
:102630000109B9F1640FADD14FF0070A504609B056
:10264000BDE8F08F0346D8E7804601212846FFF712
:102650004FFE824608B3BAF1040FEDD0EEE74FF01B
:10266000060AEBE70428E9D19DF81F3085F82B30E6
:102670009DF81F3000212846D5F800909B0745BFE4
:102680000C340D230124B4FBF3F448BF0134FFF7ED
:102690001FFD82460028DED18046A9694846FFF723
:1026A0006CFA82460028D6D1EB691B78E52B01D065
:1026B000002BC9D108F101084445C6D1013C56D0D0
:1026C00029692846A1EB4411FFF702FD8246002844
:1026D000B4D130464FF6FF79FFF766F98046A96915
:1026E0003846FFF74AFA82460028A7D1EB690F2245
:1026F000E1B2D7F810E04FF00D0CDA724A1E83F801
:102700000D8018730CFB02F284469876D8760192FD
:1027100048451FBF019A3EF8120001320192214A3A
:102720001CF802A00CF1010C03F80A0003EB0A0BE1
:102730004FEA202A002808BF4846BCF10D0F8BF84D
:1027400001A0E5D1484503D0019A3EF812200AB90C
:1027500041F040011970012300212846FB70FFF76A
:10276000C7FD824600287FF469AF013CB7D1A96953
:102770003846FFF702FA824600287FF45FAF202236
:102780005146E869FFF7F1F80B223146E869FFF797
:1027900055F995F82B30EA6903F0180313730123F8
:1027A000FB704BE7CCD301082110010070B5044643
:1027B000FFF767F90546002840D12378032B35D170
:1027C0002679012E32D10146A289E06BFFF7CDF8C0
:1027D000E36B55224121722083F8FE21AA2283F85F
:1027E000FF215223E26B137053706123D1709370F9
:1027F000E26B82F8E73182F8E40182F8E50182F8C1
:10280000E611E06BA16900F5F470FFF7A6F8E06B44
:10281000616900F5F670FFF7A0F8A26A3346E16B34
:1028200001326078A26301F053FF257100226078C5
:10283000114601F079FF003018BF012070BD2DE96D
:10284000F0470027D0F8009006460C468F75836944
:10285000002B00F09380C36A01335AD100222E2549
:102860001346F069591CC35C202B0CD0052B08BF04
:10287000E523092904D10B2A9EBFA0180132457215
:10288000A018013243720B290B46EAD1A31800218C
:102890005972A37D002B5DD1002A51D004F10901AA
:1028A00011F8012B002A4ED092B2A2F14100192852
:1028B00008D8F069092B057B34BF08201020054299
:1028C00018BF20320A730133EAE702378046D9F88D
:1028D0001030D85B48B3B8F1000F05D100F5205394
:1028E0009BB2B3F5006FF0D340F2B51140EA084057
:1028F00001F078FBFF28C5F1FF0A0DD9BAF1010FED
:1029000012D963190212D8759A7502231D4400204A
:10291000DBE7B8463D46DAE730B1BAF1000F0DD03B
:10292000631998750123F1E70025B8F1000F4FF006
:10293000000318BF00252544AB758FE75546F4E723
:102940003F23A3750123234400229A75F3691B7B5F
:1029500003B96372F369DB7A2372F0691C30FEF706
:10296000F4FF2060F269D17D937D43EA0123E38087
:10297000F269517E137E43EA0123A380BDE8F0870C
:102980002DE9F84FFF25814606684FF0040A2C46D2
:10299000444F4FF6FF78D9F8181000297BD0304605
:1029A000FFF7EBF8824600285BD1D9F81C000378CA
:1029B000002B74D0C27AE52B02F03F0289F8062082
:1029C00055D02E2B53D022F0200108294FD00F2AAA
:1029D00052D15A0649D503F0BF04D9F81030457BCF
:1029E000C9F82C30437BAB4241D1C27E837E43EA9F
:1029F00002231BB2002B3AD102784FF00D0C316943
:102A00004FF0010E22F04002013A0CFB02FC13F8D9
:102A100007A000EB0A0292F801B010F80A2042EA7F
:102A20000B22BEF1000F24D0BCF1FE0F1FD821F8FD
:102A30001C2096460CF1010C01330D2BE7D10378D5
:102A40005B0605D5BCF1FE0F11D8002321F81C3020
:102A5000013CE4B200214846FFF74AFC82460028C8
:102A600099D00023C9F818300DE0A342BAD0FF2452
:102A7000F0E74245E0D0FAE744B9FEF795FFA842F7
:102A800004D14FF0000A5046BDE8F88F4FF0FF33F5
:102A9000C9F82C30F7E7BAF1000FF2D0E1E74FF0B8
:102AA000040ADEE7CCD301082DE9F04F0B7885B09E
:102AB000064689462F2BD0F800B001D05C2B09D1F7
:102AC0004A461378914601322F2BFAD05C2BF8D06E
:102AD000002301E0DBF81C30B36099F800301F2BB5
:102AE00000F2F78080230021304686F82B3005B0B5
:102AF000BDE8F04FFFF7ECBA5C2800F0FD807F28BE
:102B000007D8A54A12F8013F1BB18342FAD106202B
:102B10002BE1FF2DFBD02AF815000135DDE0022D59
:102B200004D1BAF802302E2B00F0F5800AEB4503F1
:102B30003DB133F8022D202A01D02E2A01D1013DCA
:102B4000F6E700230AEB45022AF81530002DDED007
:102B50003AF81310581C202924D00BB92E2902D181
:102B600044F00304E4B232F8021D2E2901D0013DE5
:102B7000F9D120214FF000080B2270184746FEF7CC
:102B8000F4FE0822591C3AF813000191D0B1202814
:102B900003D02E2808D1A9420BD044F00304E4B29C
:102BA000019BEFE70346D3E7904505D2019BAB427B
:102BB0003AD10B2A31D101E00B2A27D144F003048A
:102BC0000B22E4B296F82030E52B04BF052386F8EB
:102BD0002030082A04BFBF00FFB207F00C030C2B03
:102BE00003D007F00303032B02D144F00204E4B244
:102BF000A30700F1A580FD0744BF44F01004E4B230
:102C0000780744BF44F00804E4B299E0019BAB426A
:102C100003D044F00304E4B2D4D8BF0001950B22E2
:102C20004FF00808FFB2BBE77F2838D944F0020311
:102C300040F2B5110392DBB2029301F0D3F910F028
:102C4000800FDDE9023211D000F07F005349085CAB
:102C500038B1534C14F8011F002900F08B808142D9
:102C6000F8D143F003035F20DBB210E0FF28EFD977
:102C7000511E884504D344F003049046E4B28FE724
:102C800006EB0801041208F1010881F8204006EB68
:102C900008011C4608F1010881F8200080E723465E
:102CA000D7E7002A08BF05205FE05A075DD4B37953
:102CB000DB065DD5BBF80C1032699BF80000B2FB57
:102CC000F1F301FB1323DBF83C101944FEF7BFFEC0
:102CD000B06033680025D3F810A019F8010B58B183
:102CE00040F2B51101F09EF900283FF410AF1F2803
:102CF00002D92F287FF400AF4A461378914601325B
:102D00002F2BFAD05C2BF8D01F288CBF0024042472
:102D1000012D7FF404AFBAF800302E2B7FF406AFFC
:102D2000002306F120022AF815309D4294BF20218D
:102D30002E2101330B2B02F8011BF6D144F02004A5
:102D400086F82B403046FFF759FB96F82B300028C9
:102D5000ABD0042809D1990603F00402A1D5002ABA
:102D6000B7D08023002086F82B3005B0BDE8F08F67
:102D70000520FAE7A0F1410189B2192901D847F0ED
:102D80000207A0F1610189B219299EBF203847F0DE
:102D9000010780B27BE700BF3BD301084CD3010899
:102DA00044D301087FB5CDE9001004A8144640F8CB
:102DB000041DFEF709FE061E17DB0E4D55F82620F2
:102DC00022B10023D06B137001F054FC019B13B1AE
:102DD00000221A70DA6345F8263044B1002201A9B6
:102DE0006846FEF71DFF04B070BD0B20FBE72046D0
:102DF000F9E700BFCC1600202DE9F04391B017464B
:102E000005460191002800F0D18002F03F0603A999
:102E100001A83246FEF704FF002840F0C580039B5E
:102E20004FF40070049301F023FC8046002800F06A
:102E3000BF80039B0199186104A8FFF735FE044683
:102E400020B99DF93B30002BB8BF062417F01C0FAA
:102E500051D0002C46D0042C3AD104A8FFF778FBBF
:102E60000446002834D146F0080631074DD5039BAF
:102E70000B9C18782146FEF7EAFD074601F0D9FBC6
:102E8000014604F10E00FEF768FD0B9B202203981B
:102E9000DA7200220B99FEF7E9FD0B9B002201215B
:102EA0001A775A779A77DA77039BD9706FB33946D6
:102EB00004A8D3F83890FFF7C7F9044640B949464B
:102EC0000398FEF75AFE013F039B04465F61E0B1A1
:102ED000404601F0CFFB0CB100232B60204611B01F
:102EE000BDE8F0839DF8163013F0110F58D1780724
:102EF000BBD50824ECE7002CEAD19DF81630DA06A1
:102F00004CD4BC0701D5D8074AD4039C31070B9F8A
:102F1000A36B48BF46F040066F6239462B622078AB
:102F2000FEF795FD0146A86007F11C00FEF70DFDB8
:102F3000E388B2060746AB804FF00003E8602C60E0
:102F40002E746B74EB616B6101D40024C0E7002820
:102F5000FBD06389A48968615C43BC421AD22868AB
:102F60003F1BFFF749F80128014615D9431CF4D14E
:102F70000124A961002CABD103988389B7FBF3F23C
:102F800003FB1277002FE0D0FEF703FD50B102449F
:102F9000EA619DE70024ECE70224EAE7042497E7CE
:102FA000072495E7022493E7044695E7092495E76B
:102FB000112493E72DE9F74F99460023884601A98C
:102FC000C9F8003005461446FEF71EFD00BB687CBC
:102FD000F0B92B7CDA0740F18580E8686A69801ACD
:102FE000844228BF0446002C7ED001986A698389F8
:102FF000B2FBF3F103FB1123002B53D14789013FAF
:103000000F4012D13AB9A868012809D80220687483
:1030100003B0BDE8F08FA9692868FEF7EDFFF3E77C
:10302000431C01D10120F2E7A861DDF804B0A969D1
:103030005846FEF7AEFC0028E8D0BBF80C6007EB62
:10304000000AB4FBF6F65EB3BBF80A30BA19414683
:103050009BF801009A42524688BFDE1B334601F0BE
:1030600019FB0028DED1019BDA785AB1986BA0EBEE
:103070000A00B04206D29A8922B1D96B02FB0080C5
:10308000FEF7DCFC019B9B895E43D9F80030A41B52
:10309000B0443344C9F800306B691E446E61A2E746
:1030A000C5F81CA001986A698689E969B2FBF6F344
:1030B00006FB1323F61AA64228BF2646FEF75DFD3F
:1030C0000028AFD1002EE0D0019A68699189B0FB49
:1030D000F1F301FB1303D16B404632461944FEF76E
:1030E000ADFCD2E7072093E7204691E7F7B501A9A9
:1030F0000446FEF789FC054658BB237C5B0628D5B1
:1031000001F097FA216A07460198FEF736FD054659
:10311000F8B9666AF37A314643F02003F372A26885
:103120002068FEF7A3FCE16806F11C00FEF715FC21
:10313000394606F11600FEF710FC01230198B5741C
:10314000F574C370FFF732FB237C054623F0400380
:103150002374284603B0F0BD2DE9F04F9B4685B09F
:103160000023894603A90446CBF800301746FEF732
:103170004BFC48BB607C38BB237C9A0740F1BD8088
:1031800063690025FB4228BFDF43002F00F0AB80BE
:10319000039862698389B2FBF3F103FB1123002BCF
:1031A0007ED14389013B0B4001931AD17AB9A068C3
:1031B00030B901462046FEF7D3FF002800F0938087
:1031C000012806D10220607405B0BDE8F08FA16926
:1031D000F0E7431C01D10120F5E7A368A06103B922
:1031E000A0600398E369826B9A4246D0DDF80CA098
:1031F000A1695046FEF7CDFB0028E3D0BAF80C6079
:10320000019BB7FBF6F603EB0008002E3AD0019ABB
:103210004946BAF80A3032449AF801009A4284BF0B
:10322000019A9E1A4246334601F052FA0028D2D142
:10323000039B996BA1EB0801B1420AD29A8922B192
:1032400002FB0191D86BFEF7F9FB039B4FF00002E4
:10325000DA70039B01259B895E43DBF80030BF1BBE
:10326000B1443344CBF8003063691E44E3686661BF
:10327000B3422CBFE360E66087E7FEF702FC00285C
:10328000B4D0A8E76269E3689A4207D35046FEF7D4
:10329000F8FB00289FD1039BC3F83880C4F81C803A
:1032A000039862698689E169B2FBF6F306FB132392
:1032B000F61ABE4228BF3E46FEF75FFC00288AD1C0
:1032C00066B1039A61699089B1FBF0F300FB1313B7
:1032D000D06B494632461844FEF7B0FB039B4FF0D3
:1032E0000102DA70B9E7237C43F04003237435B15F
:1032F0002046FFF7FBFE002066E7072064E728462C
:1033000062E713B50446FFF7F1FE28B901A920468C
:10331000FEF77AFB00B9206002B010BDF7B50D468C
:1033200001A90446FEF770FB0646002864D1667CBE
:10333000002E61D1E368AB4204D2227C12F0020F6E
:1033400008BF1D46002263696261C5B9284609E0CD
:103350000020E36865699D4281BF237CE56043F0FE
:1033600040032374019B9A89B5FBF2F302FB1355CA
:10337000002D41D0E36983423ED0E0613CE0019AF8
:10338000518997894F436BB3013B6A1EB3FBF7F139
:10339000B2FBF7F28A4225D37A42A1691340ED1AB3
:1033A00063610029D4D0BD4263690BD93B44ED1B56
:1033B0006361237C9A0729D52046FEF7D1FE01469A
:1033C00040BB0546636901982B4463618389B5FB63
:1033D000F3F203FB1255002DBAD0FEF7DAFA48B12A
:1033E0001044B6E7A16879B92046FEF7B9FE012876
:1033F000014604D102266674304603B0F0BD0130A8
:1034000001D10126F7E7A160A161CAE72068FEF7B4
:10341000F3FD01464B1CF4D00129EBD9019B1B6A3B
:103420008B42E7D9A161BEE77FB50546019100282F
:103430003AD0002203A901A8FEF7F2FB044650BBD4
:10344000039B4FF400702B6001F012F9064668B33D
:10345000039B019918612846FFF726FB0446A0B993
:1034600095F92B30002B08DBAB79DB0618D5039BD5
:10347000E9691878FEF7EBFAA860039B002128465B
:10348000DB88AB80FEF724FE0446304601F0F2F8FC
:10349000042C07D00CB100232B60204604B070BD73
:1034A0000524F2E70524F6E70924F6E71124F4E7FA
:1034B00013B501A90446FEF7A7FA00B9206002B0CF
:1034C00010BD2DE9F3410F4601A90546FEF79CFA10
:1034D000044628B947B901462846FEF7F9FD0446D7
:1034E000204602B0BDE8F0814FF4007001F0C0F852
:1034F0000646C0B1019B18612846FFF741FA10F05B
:10350000FB0804460BD139462846FFF798F9414697
:103510002846FEF7EDFE042814BF0446002430467A
:1035200001F0A8F8DCE71124DAE770B58EB00E469A
:103530000022019002A901A8FEF772FB0446C8B957
:103540004FF4007001F094F80546C0B1029B019958
:10355000186102A8FFF7A8FA044640B99DF9333074
:10356000002B0ADB1EB1314602A8FFF768F9284696
:1035700001F080F820460EB070BD0624F7E7112454
:10358000F8E72DE9F04385B0884615460022019002
:1035900003A901A8FEF744FB074640B9039C2C6031
:1035A000256AA369AA1E934205D8C8F80030384698
:1035B00005B0BDE8F0832378012B19D1022506461A
:1035C00029462046FEF718FD431C3FD001283FD076
:1035D00000B90136039B01351B6AAB42F0D8039B4F
:1035E000C8F800601A799E6142F001021A71DEE7A4
:1035F000E16A0646044634B9039801F10109FEF771
:10360000BCFA38BB4946DDF80C9099F80020D9F88F
:103610003C30022A03EB04000FD11B5D02344278D8
:1036200053EA022308BF0136B9F80C30013DB4FB60
:10363000F3F203FB1244DED1D1E7FEF786F930F056
:10364000704304F1040408BF0136EDE70127C6E723
:103650000227C4E70746C2E72DE9F0419CB00222E9
:10366000019003A901A8FEF7DBFA0446F8B9039B11
:103670004FF40070049300F0FBFF064600284FD083
:10368000039B0199186104A8FFF70EFA044658B984
:103690009DF83B309A0641D41B063FD49DF8168016
:1036A00018F0010F07D00724304600F0E3FF204652
:1036B0001CB0BDE8F081039F0B993878FEF7C7F97D
:1036C00018F0100F05460BD104A8FEF76FFE044654
:1036D0000028E9D1CDB90398FFF768F80446E3E77D
:1036E000FB698342DFD01290214610A81097FEF7A5
:1036F000EFFC04460028D7D110A8FFF741F9044693
:103700000028D0D00428CFD1DEE70246294604A8FD
:10371000FEF79AFD04460028C6D1DCE70624C3E77D
:103720001124C4E72DE9F04790B00222019003A9CB
:1037300001A8FEF775FA044600287CD1039B4FF4DC
:103740000070049300F094FF0646002800F0878084
:10375000039B0199186104A8FFF7A6F90446002805
:1037600079D0042864D19DF83B1011F0200174D168
:1037700004A8FEF7F5FC039B054659899A894A433C
:10378000079200285BD001285BD0421C5BD0184612
:10379000FEF777F9044600F04CFF8146002C54D127
:1037A00029460398FEF78DF9044600284DD1039B66
:1037B0004FF02E0A4FF010080B22DC6B2021204620
:1037C00004F12007FEF7D1F804F1160084F800A0F8
:1037D000494684F80B80FEF7C0F821462A46039834
:1037E000FEF744F938462022FEF728F9394684F8D6
:1037F00021A00127069A0398FEF738F9039B0DEBE9
:103800000800DF70FEF7A4FE0446F0B90B9C4946A1
:1038100004F11600FEF7A1F821462A460398FEF7A8
:1038200025F9039884F80B80C770FEF7BFFF0446A4
:10383000304600F01FFF204610B0BDE8F087072497
:10384000A9E70224A7E70124A5E70022294604A846
:10385000FEF7FAFCECE70824EAE70624E8E711247F
:10386000E9E7F0B5A5B0019024A840F8901DFEF757
:10387000ABF8022203A901A8FEF7D2F904460028FA
:1038800079D1039B4FF400700C9300F0F1FE0646D3
:10389000002877D0039B019918610CA8FFF704F961
:1038A0000446002864D19DF85B3013F0A00F65D169
:1038B0002022139904A8FEF7C1F8302218A80DEBB6
:1038C0000201FEF7BBF8009918A8FFF7EDF80446CF
:1038D00048B91A9A0E9B9A4203D11C9A109B9A429D
:1038E00003D0082444E0042842D118A8FEF730FE93
:1038F000044600283CD11F9C13220DF11D01012715
:1039000004F10D00FEF79AF89DF81B30039DDA06CE
:1039100058BF43F02003E372EF70E37ADB061ED555
:103920000E9A1A9B9A421AD021462878FEF78FF8F1
:1039300001462846FEF72DF8014608B32846FEF753
:103940001CF90446A0B90398C16B91F821302E2BC5
:1039500005D11A9A2031FEF789F8039BDF700CA875
:10396000FEF724FD044618B90398FEF71FFF04462E
:10397000304600F07FFE204625B0F0BD0624F7E774
:103980000224F5E71124F6E72DE9F04F8FB00E463B
:1039900090461D460EAC44F81C0D2046FEF714F868
:1039A0000028C0F2FB82A84B53F820300BB1002254
:1039B0001A70C7B2384600F061FEC30700F1F0820A
:1039C000440700F1EF8209AA0321384600F0ACFE5B
:1039D00030B9099A531EB3F5004F01D21A4201D0F3
:1039E000012309930DF122020221384600F09CFECA
:1039F00008B101203DE0BDF82290A9F50073B3F5B0
:103A0000606FF6D809F1FF3313EA090FF1D1B8F16D
:103A1000000F06D0C14501D913202AE0B8F1807FFC
:103A2000FAD808F1FF3313EA080FF5D13DBB4FF484
:103A300000430293029ABDF82230934218D81046F0
:103A400000F016FE0446B8B1BDF82230029AB2FB6F
:103A5000F3F30393039B5BB10AAA0121384600F0FC
:103A600063FEA8B1002DC4D1204600F003FEC0E7DC
:103A700011200FB0BDE8F08F029B5B08D9E7189BBF
:103A80002C46B3FBF9F3039303FB09F30293E1E73D
:103A900016F00803DDF828E00CBF4FF03F0A4FF0A6
:103AA000000A0593D64505D215B9204600F0E2FD7F
:103AB0000E20DEE7AEEB0A017F290A91F4D9B8FBAC
:103AC000F9F2802A05D9002DA6D1204600F0D2FDBA
:103AD000A2E716F00203069307D006F00703022BB5
:103AE00000F06682F00740F16382F307EBD522BB5A
:103AF0000E0B564B4FF0010933F8020FF0B1B042F4
:103B00001CD84FEA4909F7E7002074E0B8F1020F2A
:103B100040F0A0804FF6F5730498984240F28580FB
:103B2000002A40F041824FEA4902402ADFD9069B31
:103B3000002B40F04082802AB6D8914640F6F570BE
:103B40004FF0010BB1FBF9F38342BDF8220094BFA3
:103B500003EB4303023300F1FF368BBF4FF0020843
:103B600001335B004FF001089CBF5B0803331E4428
:103B70004FF48043B6FBF0F6B3FBF0F301930BEB8D
:103B80000A03DDF824C0B8F1030F0093019B06EB94
:103B90000300009B18440CF1FF33CCF1000C0344EC
:103BA00003EA0C0C08BF009BACEB000C05BF6344A0
:103BB000E34466440093CAEB091318448142FFF4BE
:103BC00073AFA1EB0B030198B8F1030FA3EB06034E
:103BD000A3EB0003B3FBF9F3049397D14FF6F5730E
:103BE000049898423ED8002A7FF45EAF5FEA5902FB
:103BF0003FF45AAF1046BDF822C0B1FBF2F30CEB14
:103C00008306A3F57F430736F63BB6FBFCF6DFF8E9
:103C100040C063453FF648AF002391464FF0200B6C
:103C2000024601934FF00308A9E740F6F5730498A4
:103C3000984217D8002A7FF437AF4FEA4902802A0A
:103C40003FF632AF53E700BFCC160020E2D30108A5
:103C5000FFFFFE0F40F6F573049A9A423FF624AF39
:103C60004FF001080EF1FF330BAA042138460C93E4
:103C7000CDF82CA000F058FDBDF8222000212046F0
:103C8000FDF773FED2490B222046FDF7D7FEBDF8A3
:103C90002230B8F1030F0A99E3724FEA232384F824
:103CA0000EB04FEA2B2B23734FF0010384F80D90D5
:103CB00023744FF0000384F80FB0637418BF02231D
:103CC000B1F5803FA37480F04181E1740912217540
:103CD000F8234FF0000B514604F11C0063753F239D
:103CE00084F819B02376FF2384F81BB0A376FDF780
:103CF00034FEB8F1030F40F02E8100F09AFC01462B
:103D000004F14300FDF729FE314604F12400FDF7DC
:103D100024FE02231322AF4984F82C30012304F13E
:103D2000470084F82DB084F83030062384F82EB094
:103D300084F83230802384F82FB084F8403029236F
:103D400084F831B084F833B084F84230FDF776FE61
:103D50004FF055035246214684F8FE316FF055036B
:103D6000384684F8FF31012300F0B2FC8346002876
:103D70007FF478AEB8F1030F41D101230AF10602B6
:103D80002146384600F0A4FCBDF8222059462046C2
:103D9000FDF7EBFD522341227221237004F5F470EC
:103DA00063706123E270A37084F8E731049B84F8A8
:103DB000E41184F8E511591E84F8E621FDF7CDFDE4
:103DC00002230AF10702214684F8EC314FF0550333
:103DD00084F8EDB1384684F8FE316FF0550384F86D
:103DE000EEB184F8FF31012384F8EFB100F070FCEC
:103DF0000123214638460AEB030200F069FC029ACF
:103E000000212046FDF7B1FDB8F1030F40F0B88066
:103E1000F8232370FF236370A370E3702371637131
:103E2000A371E37123726372A3720F23E372039B86
:103E30002146009A3846B34228BF33469B4600F0DD
:103E400047FC014600287FF40DAEBDF82220204635
:103E5000FDF78BFD009BB6EB0B065B440093E6D1B0
:103E6000019BB8F1030F08BF4B460193019B21460C
:103E7000039A3846934228BF1346009A1E4600F024
:103E800027FC00287FF4EEAD009B33440093019B98
:103E90009B1B0193EAD1B8F1030F7BD00A9BB3F5CA
:103EA000803F79D2B8F1020F14BF01230423059A91
:103EB000002A3BD1BDF82220204605990126FDF7B6
:103EC00054FD552284F8C231514684F8FE21AA22BD
:103ED0000A9B04F5E37084F8FF219DF814205344F5
:103EE00084F8BF6184F8BE2184F8C12143F6C16221
:103EF00084F8C061B3FBF2F3FE2284F8C53184F884
:103F0000C3219A0842F03F0284F8C421FDF725FD41
:103F10000A9904F5E570FDF720FD3346059A214620
:103F2000384600F0D5FB00287FF49CAD00223846CF
:103F3000114600F0F9FB00287FF494AD002D7FF4CA
:103F400098AD204600F096FB284692E504F120004B
:103F5000FDF703FDBCE600F06CFB014604F1270011
:103F6000FDF7FBFCA675331213221B4904F12B004D
:103F7000E375802384F82430292384F82630E5E68D
:103F8000B8F1010F1549204618BF6FF00701FDF782
:103F9000E4FC4CE70C238AE7062388E70B2068E55E
:103FA000032066E50A2064E5069B002B3FF47CAD08
:103FB000002A7FF41FAE4E0C094B012233F8020F8A
:103FC00000283FF418AEB0423FF69EAD5200F5E730
:103FD00000D401080CD4010820D40108F8FFFF0028
:103FE000F0D301087F2810B501D880B210BDB0F51C
:103FF000803F12D240F2B51399420ED100220849F7
:1040000031F8124093B2844203D00132802AF7D1B2
:10401000134603F18000C0B2E8E70020E6E700BFE6
:1040200034D401087F280DD940F2B513994208D144
:10403000FF2806D800F10040034B803833F8100009
:1040400070470020704700BF34D40108B0F5803FAE
:10405000F0B521D21E4A83B21E49B0F5805F28BF59
:104060000A46141D34F8042C2146A2B1934212D3FF
:1040700034F8025C2E12EDB2AF18B84222DA082EE4
:1040800009D8DFE806F0050A10121416181A1C00E9
:10409000801A34F810301846F0BD981A00F001006C
:1040A0001B1A9BB2F7E7103BFBE7203BF9E7303BDD
:1040B000F7E71A3BF5E70833F3E7503BF1E7A3F5E1
:1040C000E353EEE70434002ECCD101EB4502C8E700
:1040D00034D5010826D70108036800225B6F184712
:1040E000132832D8DFE800F0330A0D0A101316192E
:1040F0001C1F192222160A25282B2E166FF00400E9
:1041000070474FF0FF3070476FF0010070476FF05D
:10411000130070476FF0150070476FF00C00704788
:104120006FF0100070476FF0080070476FF01200DA
:1041300070476FF06D0070476FF00F0070476FF0C1
:104140000B0070476FF01600704740427047002028
:10415000704703680122D3F88030184738B50368E8
:1041600004460D469B6F984723686D692046DB6FB8
:104170009847284638BD38B5036804460D469B6FFE
:1041800098472368ED682046DB6F9847284638BD7E
:1041900038B5036804460D469B6F984723682D6920
:1041A0002046DB6F9847284638BD03680846184705
:1041B00008B10B6803607047704700002DE9704339
:1041C000214C054654F820000368DB6A984786B204
:1041D000B6F5007F38BF4FF40076A6F50073B3F54F
:1041E000606F04D9B3221949194801F06FFE54F8E1
:1041F000250003685B6A9847804654F82500894685
:104200000368DB6A9847494508BF404504D2B42299
:104210000E49104801F05AFE54F8250003689B6AC5
:104220009847804654F8250089460368DB6A98471A
:10423000494508BF404504D2B5220449064801F06B
:1042400045FE3046BDE870830817002030D80108CD
:10425000A4D80108CDD8010809D9010808B102F095
:1042600027BB704773B51446054628220021204617
:104270000FF086FF2B6828469B6F98476A4601A976
:1042800005F15400FFF77DF9064648B12B68284632
:10429000DB6F9847304602B0BDE87040FFF720BFA3
:1042A000009A93895189C4E90033136A023B4B4356
:1042B000C4E90230019B4B43C4E90430C4E9063031
:1042C000FF23284663622B68DB6F9847304602B0B5
:1042D00070BD70B503680D4604469B6F984728462D
:1042E000FFF70FF8236806462046DB6F98472846FD
:1042F00028210CF077FE3046BDE87040FFF7F0BE95
:1043000070B503680D4604469B6F98472846FFF733
:10431000CFF8236806462046DB6F984728463021B1
:104320000CF060FE3046BDE87040FFF7D9BEF0B536
:10433000036817460E69C7B09B6F05460C46984741
:10434000BE4209DD00212046FFF7BBF82B68284656
:10435000DB6F984747B0F0BDBE42F7DA69462046AA
:10436000FFF7AFF826690028F0D19DF81630002B32
:10437000F2D1EBE770B503680D4604469B6F984792
:1043800028460021FFF79DF823682046DB6FBDE833
:104390007040184770B50368C6B00E4605469B6F5F
:1043A0001446984730466946FFF78BF82B68064657
:1043B0002846DB6F98472EB1304646B0BDE87040C6
:1043C000FFF78EBE9DF8160088B19DF8083013F0F7
:1043D000100F14BF0323052384F8003123782BB971
:1043E000FF220DF11601204610F084FF012046B097
:1043F00070BD000038B5036804469B6F9847A36DF5
:10440000013317D0002204F154011046FEF7CAFC14
:10441000A26D0C4B00210546204643F822104FF0B8
:10442000FF33A3652368DB6F98472846BDE8384013
:10443000FFF756BE23682046DB6F98476FF01500E4
:1044400038BD00BF08170020F8B51F4603680646B0
:104450000D469B6F14469847022F11D1EB681C4400
:1044600021462846FEF75AFF336804463046DB6F84
:104470006D69984744B12046BDE8F840FFF730BE6B
:10448000012FEDD16B69EAE72846F8BD38B503681E
:104490000D4604469B6F98472846FEF727FE236883
:1044A00005462046DB6F98472846BDE83840FFF7B1
:1044B00017BEF7B51F4603680D46164604469B6FA8
:1044C000984701AB28463A463146FEF745FE236839
:1044D00005462046DB6F98472DB1284603B0BDE85E
:1044E000F040FFF7FDBD019803B0F0BDF7B51F46E2
:1044F00003680D46164604469B6F984701AB284655
:104500003A463146FEF756FD236805462046DB6FE6
:1045100098472DB1284603B0BDE8F040FFF7E0BD55
:10452000019803B0F0BD000070B5036804460D4665
:1045300016469B6F9847A36D013306D0236820462B
:10454000DB6F98476FF0150070BD0023164A52F8D4
:104550002300F0B942F82350A365303384F85600A5
:10456000201D84F854303A2384F8553001F01EFBA6
:10457000324604F1540104F11400FEF713FC2368E1
:1045800005462046DB6F98472846BDE87040FFF798
:10459000A7BD0133042BDAD123682046DB6F98478F
:1045A0006FF00B00D0E700BF08170020054B10B5D7
:1045B00003602C33044640F8043F01F01FFB204603
:1045C00010BD00BFECD70108A0F10400EEE700BF6A
:1045D000074B03F10802943310B5044602604360B0
:1045E000FFF708FF2046FFF7E1FF204610BD00BFA0
:1045F00058D90108A0F10400FFF7EABF10B504463E
:10460000FFF7E6FF5C2120460CF0ECFC204610BDD5
:10461000A0F10400FFF7F2BF10B50446FFF7C6FF94
:10462000142120460CF0DEFC204610BDA0F1040051
:10463000F2E707B5684602F05BFA68460EF084FFC1
:104640000221D0E90232DB0243EA0243426843EA34
:104650004213026892FBF1F2134342690069503A37
:10466000013043EA426343EA405003B05DF804FB83
:104670000FF038B90FF03EB90020704708B5044B71
:1046800053F8200003689B689847C0B208BD00BF7C
:1046900008170020F7B5174605460E461C46FFF7DB
:1046A0008DFD0A4A0346314652F82500A3FB044516
:1046B0000268CDE900455469A3FB0723A047002801
:1046C00014BF0420002003B0F0BD00BF0817002075
:1046D0002DE9F34716461C468146DFF848808A4696
:1046E000FFF76CFDA0FB0667A0FB044558F8290006
:1046F00032460368CDE90045D9693B46884718B181
:10470000042002B0BDE8F08758F82900324651462F
:104710000368CDE900459C693B46A0470028F0D0DE
:10472000EEE700BF08170020F7B504461546042938
:104730004CD8DFE801F0030B28303300254B53F849
:104740002030002B44D0002003B0F0BD214B53F8A3
:10475000200000283CD003689B6B984706460F4614
:104760002046FFF72BFD002382B23946304617F072
:10477000A7F93F28044604D8BC221749174801F07E
:10478000A5FB2C60DFE7134B53F8203003B3FFF792
:1047900015FD2880D7E701231360D4E70D4E56F8A6
:1047A0002030ABB1FFF70AFD56F824106C682B6877
:1047B00001340A68E41AA4FB0045CDE90045146AF7
:1047C000A0FB03230846A0470028BCD00420BBE779
:1047D0000320B9E70817002030D80108F4D90108F0
:1047E00038B504461546FDF77FF80A4B23608C3335
:1047F00063604FF0FF33A3654DB129462046FFF7B4
:10480000A8FC04E02046FFF7D1FE0CF0E7FF2046AD
:1048100038BD00BF60D90108C36810B504460BB1AC
:104820009B689847204610BD38B5CB6804460D46B6
:104830000BB15B689847EB682046E36038BD000029
:104840002DE9FF4105461746061D884649B9102245
:1048500068460FF095FC2F6069463046FFF7E4FF8D
:1048600034E0214810F08CFC0446384610F088FCF7
:104870002044013002F006F8044650B901461022E7
:1048800068460FF07DFC2C6069463046FFF7CCFF90
:104890001CE03A2308F1300843702F2380F8008091
:1048A0008370114810F06CFC3946204410F006FA71
:1048B0000021102268460FF063FC0C4B2C60694607
:1048C000009330460A4B0393FFF7AEFF6846FFF7AD
:1048D000A3FF284604B0BDE8F0816846FFF79CFFBF
:1048E0000CF07CFFF9E7F8E72CD801085D420008DE
:1048F00020D8010838B503690446051D1BB10168BD
:1049000028461B6898472846FFF786FF204638BD93
:1049100030B587B004460A46816D01A8FFF790FFC5
:10492000236820469B6F98470198FEF795FE236801
:1049300005462046DB6F9847072D06D16FF026020B
:1049400029460B480FF07CFC09E02846FFF7C8FB1E
:10495000044601A8FFF7CEFF204607B030BD6FF038
:104960002604F6E701A8FFF7C5FF0CF037FF00BFEC
:1049700048D9010830B58BB0044615460A46816D0A
:104980006846FFF75DFF2A46A16D05A8FFF758FFAF
:10499000236820469B6F984705990098FEF761FFB2
:1049A000236805462046DB6F984708E005A8FFF717
:1049B000A1FF6846FFF79EFF0CF010FFF9E72846BD
:1049C000FFF78EFB044605A8FFF794FF6846FFF744
:1049D00091FF20460BB030BD30B587B004460A4683
:1049E000816D01A8FFF72CFF236820469B6F984735
:1049F0000198FEF797FE236805462046DB6F98472F
:104A000004E001A8FFF776FF0CF0E8FE2846FFF768
:104A100067FB044601A8FFF76DFF204607B030BDD5
:104A200070B5CCB0044615460A46816D01A8FFF763
:104A300007FF236820469B6F984700214FF48C7234
:104A400006A80FF09DFB06A90198FEF76EFD06462D
:104A500068B123682046DB6F98473046FFF740FB7C
:104A6000044601A8FFF746FF20464CB070BD9DF8F4
:104A7000202040F2FF11069B204612F0100F2B6100
:104A800014BF4FF480434FF4004312F0010F40F283
:104A90006D1208BF0A4613436B602368DB6F9847AB
:104AA0000024DEE701A8FFF725FF0CF097FE2DE9B3
:104AB000F041144686B0054604301E46884601F093
:104AC00075F8282001F0CAFE22460746A96D01A804
:104AD000FFF7B6FEB00715D416F0010F0CBF012486
:104AE0000224B10505D572054CBF44F0080444F01A
:104AF000100433072B6828469B6F48BF44F03004EE
:104B0000984701E00324ECE7224601993846FEF776
:104B100073F92B6804462846DB6F7CB1984728213F
:104B200038460CF05FFA2046FFF7DAFA044601A88F
:104B3000FFF7E0FE204606B0BDE8F0819847C8F8D0
:104B400000700024F3E701A8FFF7D4FE0CF046FE46
:104B5000F0B5054687B0144630200F4601F07EFEC2
:104B600022460646A96D01A8FFF76AFE2B68284673
:104B70009B6F984701993046FEF756FC2B68044618
:104B80002846DB6F98476CB1302130460CF02AFA8A
:104B90002046FFF7A5FA044601A8FFF7ABFE204622
:104BA00007B0F0BD3E60F7E701A8FFF7A3FE0CF0E9
:104BB00015FE000008B50448FBF7B8FB4FF0FF31C5
:104BC000BDE8084002F014B8E016002008B503481C
:104BD000FBF7ACFBBDE8084002F014B8E01600207B
:104BE00008B50348FBF7A2FBBDE8084002F00AB88D
:104BF000E01600202DE9F04F93469DB000220446B8
:104C000005A81146FFF7ECFD05A8FFF7D3FF2368C1
:104C100020469B689847054610B1FFF7E1FF82E008
:104C200023682046DB6A9847420041EB0103204697
:104C3000CDE90223DDE902122368CDE9001200224A
:104C4000D969002388472368054618B1DB682046E8
:104C50009847E2E75B6B20469847002834DA2368E0
:104C600020469B6A9847804689460EF03BFE824666
:104C700030B923682046DB689847FFF7B1FF5DE055
:104C8000002600274246FF210FF07AFADDE90223D1
:104C90009F4208BF964214D22368324651462046AE
:104CA000CDE900899D693B46A847054620B150469D
:104CB0000EF020FE2368C9E716EB080647EB09074C
:104CC000E4E750460EF016FE236820461D6A9B6BF3
:104CD000984700220023CDE900012046A847236819
:104CE00005462046DB68002DB2D1984705460028CE
:104CF00093D10246214605A8FFF716FC0546002879
:104D00008BD1009003465A460F211AA8FEF73CFEAD
:104D1000044605A874B1FFF76DFBFFF761FF20465D
:104D2000FFF7DEF9054605A8FFF752FC28461DB03F
:104D3000BDE8F08FFFF75EFB05466EE76FF00B05F1
:104D4000F1E705A8FFF744FC0CF048FDF8B503684F
:104D5000044617460E469B6F9847A36D5A1C0BD00E
:104D600016B9134A52F82360236820469B6A984775
:104D7000054608B1236810E03EB923686FF01205BC
:104D80002046DB6F98472846F8BDFB173A46304669
:104D9000FFF730FF2368054618B1DB6F20469847C0
:104DA000F1E75B6A3146204698470546E2E700BFD7
:104DB0000817002002684F4B9A42F0B58DB040F0C2
:104DC00097804D4A0023C2F88430BFF34F8F536958
:104DD00023F480335361BFF34F8FD2F8803043F612
:104DE000E076C3F3C904C3F34E33A5075B0103EABE
:104DF000060C284621464CEA0007013900F14040E4
:104E0000C2F874724F1CF6D1203B13F1200FEED183
:104E1000BFF34F8FBFF36F8F384C00260CAD38486F
:104E2000236B43F001032363236B03F0010300931F
:104E3000009B236B43F002032363236B03F0020305
:104E40000193019B236B43F004032363236B03F063
:104E500004030293029B236B43F040032363236B01
:104E600003F040030393039B03230A930223CDE93A
:104E700008360B230B93862345F8143D294605F08D
:104E8000D9FC4FF4005329461E48079305F0D2FC85
:104E9000322329461C48079305F0CCFC42F6040354
:104EA00029461A48079305F0C5FC324607213D20E4
:104EB00004F08AFF3D2004F0B9FF236B43F0007338
:104EC0002363236B03F000730493049B236B43F071
:104ED00080632363236B03F080630593059B236B3F
:104EE00043F000632363236B03F000630693069B88
:104EF0000DB0F0BD0080024000ED00E0003802403F
:104F00000000024000040240000802400018024075
:104F100010B59EB004467422002101A80FF030F9AC
:104F20004FF400734FF48062CDE9072340230E93C2
:104F30001023129380231793E3690BB10023079387
:104F400001A9204605F0EAFB1EB010BD40F2DC507E
:104F500070470020704706207047704770477047C1
:104F6000C0F828117047034610B107C983E807004D
:104F70007047704710B44468034681686210E407C4
:104F80001B6801EB020048BF8A585DF8044B48BF1C
:104F9000D3581847032A0846024928BF03220EF0B7
:104FA000F1BF00BF36DA01082DE9F04F076B85B07D
:104FB00000240546BB6803914FF0FF31019300F1D7
:104FC000E403A0461846009301F012FE039E002E53
:104FD0005BD03B68002B1ADA00246A6841F21403A4
:104FE000D158890606D52021D15041F204036A68C0
:104FF0000021D150D5F8280103990368DB68984750
:10500000009801F0FFFD204605B0BDE8F08FD5F80F
:10501000280131464FF0000A0368DB6A9847814651
:10502000019B04EB090BD5F82801314623440268A3
:10503000029340F2F453926A9B4515D9C4F5BE64BD
:10504000904700EB0A010298043422460EF09AFFC2
:10505000FF683A68002ABFDBBB68A244A044ABF2F9
:10506000F45901930024DBE790474A4600EB0A011C
:1050700002980EF087FFD5F828013146C84402682F
:105080005C46526A90470646A1E74146281D05F056
:10509000BDF80124A1E7000038B50546104C6B6847
:1050A000D3F8C42122B14FF0FF3002F0DFF8FAE765
:1050B000D3F894310A2B0FD9636823F4000363609B
:1050C000636843F4000363606A68D2F8003143F018
:1050D0000103C2F80031E2E7642002F0C7F8DEE71E
:1050E0000038014038B50C4B00250446E43040F848
:1050F000E43C40F8985C01F073FD2946102204F569
:1051000084700FF03DF81022294604F58C700FF0E2
:1051100037F8204638BD00BF44DA01082DE9F74FC3
:10512000044604300D4605F0DDF8024600286BD138
:10513000D4E910168BB233B1D4F8280189B20368D0
:105140005F68B84728602D68002D3ED0D4F83490B1
:105150004FF0000840F2F45B0096D4F8280129468D
:10516000464600270368DB6A9847024606EB0208BA
:10517000D4F8280100990368D84501EB060A9B6A18
:1051800012D9ABEB060629469847514632463844B9
:105190000EF0F8FED9F80C903744A8F2F452D9F882
:1051A000083000260093E1E7294601929847019ACA
:1051B000514638440EF0E6FED4F82801294603682B
:1051C0005B6A984705460028C7D1636B0022E16BF4
:1051D000914206D91968013241F000411960DB683B
:1051E000F5E70022656841F21401E263685810F0A7
:1051F000800006D0802310466B5041F2080361689E
:10520000CA5003B0BDE8F08F4FF0FF30F9E700005F
:105210002DE9F74304460027DFF84480DFF8449087
:1052200002A9204641F8047DFFF778FF002814DB2F
:10523000019D002DF4D0D4F8143104F584762BB9F7
:1052400040F2A9424146484600F040FED4F81431ED
:10525000294630461B689847E2E703B0BDE8F08373
:1052600082CD0108E0CD010838B50E4C0546237803
:10527000BFF35B8FDA0708D4204601F065F920B14F
:10528000094B20461D6001F089F9074C4FF0FF32B1
:105290000021012004F044FAC307F7D52068FFF786
:1052A000B7FFF3E7BC470020F448002008B53D20D5
:1052B0000022072104F088FD3D20BDE8084004F0ED
:1052C000B5BD0020704700000022064B1B6802702D
:1052D000802243714270E12282701A0CC2701A0A55
:1052E0000271704720F4F01F10B50446FFF7E9FF84
:1052F00020B92046BDE81040FFF7E6BF10BD000012
:1053000037B5184B01254FF480420446C0E90135FA
:105310004FF40063C0E90323002383826846FFF74C
:10532000E3FF4FF40003C4F818D06362C4E90755E3
:105330000434204605F0BAF804230B4A20460B49F2
:1053400004F0EEFE04230A4A20460A4904F024FF32
:105350002046FFF7DDFD204605F0A2F9284603B000
:1053600030BD00BF00800240E82F002098170020C9
:105370001818002018170020084608B5FFF7B4FFDA
:10538000012008BD0D4808B50378BFF35B8FDB072C
:105390000DD401F0D9F850B10948FFF7A3FE074832
:1053A00001F0FCF8074A0849054801F0B3F8044841
:1053B00008BD024801F00EF90CF010FAB8470020C1
:1053C000C0470020F80100204955000808B5FFF744
:1053D000D9FFC06C20B10121BDE8084004F05EB9DE
:1053E00008BD08B5FFF7CEFF0430BDE8084004F063
:1053F000B3BF0000F0B58BB00446FFF781FF06464F
:10540000002872D02022002102A80EF0B9FE3B4BEA
:105410004FF4007001930EF065FA04F1500301AAF5
:105420002146059003934FF40073354806934823B3
:1054300004932823079304F0FFF8E064FBF79CFF34
:1054400000210746102201A80EF09AFE2D4B1021D4
:10545000384601930023CDE902342B4B0493FBF72C
:1054600045FD0546C8B1049B33B9049BC8212846B5
:10547000EB60FBF778FE03E05B6801A99847F4E76F
:10548000C8212846FBF772FE20492846FBF771FE2B
:105490002A461F493846FBF794FDC4F8300101A89D
:1054A000FAF72AFF2022002102A80EF069FE194B0C
:1054B0004FF4007001930EF015FA04F19803059073
:1054C00001AA214603934FF400731348069348231F
:1054D00004932823079304F0AFF8C4F8E0000A20EF
:1054E00001F0C4FE2046FFF7E1FE30460BB0F0BDF0
:1054F00001A8FAF701FF0CF071F900BF10DA0108FA
:1055000069520008C955000804DA0108B7130008F9
:10551000BF13000822DA01089950000870B500F5A1
:10552000847506460C468D420CD02846FBF728FFB2
:1055300045B1E3681BB15B68214628469847E3689C
:10554000C6F8143170BD0000084B10B50446036066
:1055500000F58C70FBF71CFF04F58470FBF710FF5F
:1055600004F1E40001F054FB204610BD44DA0108C8
:1055700070B500F58C7506460C468D420CD0284659
:10558000FBF706FF45B1E3681BB15B68214628467F
:105590009847E368C6F8243170BD0000C36870B551
:1055A00004460D462BB940F2A9420549054800F0D2
:1055B0008DFCE368294620461B68BDE8704018470B
:1055C00082CD0108E0CD010813B5044601AA0121EE
:1055D000043004F0F9FEB0B9D4F8243183B1019954
:1055E000D4F82C3111F0040103F0040306D03BB9C8
:1055F000012104F58C70FFF7D1FF01E0002BF8D1F9
:10560000019BC4F82C3102B010BD0000EFF31083F1
:10561000DB4372B6044A117829B903F00103034948
:105620000B70012313707047F9480020F8480020E0
:1056300008B5EFF31083DB0704D43622054906488A
:1056400000F044FC054B00221A70054B1B7803B197
:1056500062B608BD80DA0108EADA0108F9480020DC
:10566000F848002038B504460D4603685AB18268F0
:1056700020461360012107F0EDFB29462046BDE8D6
:10568000384007F0E3BBC2681B04F1E770B50E4673
:105690000446154607F0BAFB013606D02A462046D6
:1056A0000021BDE87040FFF7DDBF70BD0022FFF7AD
:1056B000EDBF000013B5044601300FD102B010BD9C
:1056C000A3420AD12046896807F0EAFC002120465F
:1056D00002B0BDE8104007F07DBD0C31B1F90030DB
:1056E0005A1CEDD10023224602490093024800F0E3
:1056F0008FFDE3E735DB010830010180884207B503
:1057000002460BD0431C09D001310BD000230649BF
:105710000648009300F07CFD4FF0FF31084603B0CF
:105720005DF804FB0146F9E704DB01083001018064
:10573000B1F900305A1C01D118467047834201D19B
:10574000486870470C31F3E7421C13B504460BD090
:10575000FFF7EEFF431C044606D10023024604492E
:105760000093044800F054FD204602B010BD00BF75
:1057700015DB01083001018013B50D4C00F026FC4B
:105780004FF6FF7322889A4208D100F035FC0023BF
:10579000228800930749084800F03AFD0121044897
:1057A00000F038FC02B0BDE8104000F025BC00BF9E
:1057B000FA48002046DB01082301048037B50B4D71
:1057C00000F004FC2C8844B900F016FC2A880094F0
:1057D00023460749074800F01BFD0121034800F05C
:1057E00023FC03B0BDE8304000F006BCFA480020BE
:1057F0006BDB01082401048008B500F0E7FB064BD1
:105800001B882BB908F02AF8BDE8084000F0F4BB6B
:1058100008F018F8F8E700BFFA4800202DE9F34D2A
:10582000D0E9003804465B68984763681B6A834286
:105830005CD0D8F820100025D8F80C30411AC8F8F0
:105840002000D8F808603648194086420C4646D0F9
:10585000A1FB001298F839300027D8E90AABCDE94E
:105860000012002B45D00099C3F1200CA3F12002B7
:1058700021FA03F4019901FA0CFC21FA02F221FA4F
:1058800003F544EA0C04A3F1200CDDE90001144304
:10589000C3F1200210EB0A0004FA0CFC24FA02F215
:1058A00041EB0B0105FA03FB04FA03FA4BEA0C0B7C
:1058B0004BEA020BB0EB0A0261EB0B03BB4208BFE1
:1058C000B24202D2C8E90A2309E0013445F10005D9
:1058D000921B63EB070310461946C8E90A01D8E991
:1058E0000C01021941EB0503C8E90C2302B0BDE825
:1058F000F08D32463B46DDE9000116F0E1F8044642
:1059000012EB0A000D4643EB0B01B94208BFB0424F
:10591000E3D3013445F10005821B61EB0703D1E7B6
:1059200040420F00824206D98A420BD9884294BF76
:10593000002001207047884206D98A428CBF00208F
:105940000120704701207047002070472DE9F14F7A
:105950008146D0F80480FFF761FFD9F80450D9F8E8
:1059600000A06B68002B58D0D5E90C01D3E9006783
:10597000B94208BFB04205D3DAF8143001B0BDE82F
:10598000F04F1847361A2C69D5E9062367EB010753
:10599000BB4208BFB24206D3AB68284A93421DD12E
:1059A000B44228BF34462A6AD8F820301444EA6842
:1059B0001440A342E0D0DAF8103020469847D9F8D6
:1059C00000305B68984722460146D8F82000FFF770
:1059D000A9FF80B3D9F800305B69CFE795F83900AB
:1059E000A0B1A0F12003C0F120018740134A06FABC
:1059F00003F326FA01F106FA00F01F4300233943AE
:105A000016F05EF8844228BF0446CCE7A3FB0601EB
:105A10000A4A03FB07110023F2E7D8F81030D8F840
:105A20002000D8F80C201844DAF81030104001B0EB
:105A3000BDE8F04F184701B0BDE8F08F40420F00BD
:105A40002DE9F84F4368044693F83830002B5CD1B9
:105A500003681B68984723689B6998470668054652
:105A60002EB92B4E29222B492B4800F02FFA1F2349
:105A7000012202FA03F15FFA83FAB14202D0013B3C
:105A8000F7D19A466D682B1F1C2B05D9202537228C
:105A90002049214800F01AFA2B1F072716F1FF3082
:105AA000DFF86CC007FA03F74FF00003324643F10A
:105AB000FF31CCFB070116F003F8D4F804B0002343
:105AC00089468046CBE9003323685B689847CBF86A
:105AD0002000012061680023002200FA05F58E6095
