:020000040800F2
:1000000000000820B55D0008E95D0008412D0008EA
:10001000492D0008512D0008592D0008000000004E
:100020000000000000000000000000001D32000879
:10003000E95D000800000000BF320008CF32000870
:10004000E95D0008E95D0008E95D0008E95D000878
:10005000E95D0008E95D0008E95D0008E95D000868
:10006000E95D0008E95D0008E95D0008E95D000858
:10007000E95D0008E95D0008E95D0008E95D000848
:10008000E95D0008E95D0008E95D00080D8A0008E7
:10009000018A0008E95D0008118A0008E95D00088E
:1000A000E95D0008E95D0008E95D0008E95D000818
:1000B000E95D0008E95D0008E95D0008E95D000808
:1000C000E95D0008E95D0008E95D0008E95D0008F8
:1000D000E95D0008E95D0008E95D0008E95D0008E8
:1000E000E95D0008E95D0008E95D0008E95D0008D8
:1000F000E95D0008E95D0008E95D0008E95D0008C8
:10010000E95D0008E95D0008E95D0008E95D0008B7
:10011000E95D0008E95D0008E95D0008E95D0008A7
:10012000E95D0008E95D0008E95D0008E95D000897
:10013000E95D0008DB160008E95D0008218A000877
:10014000158A0008E95D0008258A0008E95D0008B5
:10015000E95D0008E95D0008E95D0008E95D000867
:10016000E95D0008E95D0008E95D0008E95D000857
:10017000E95D0008E95D0008E95D00080000000095
:10018000E95D0008E95D0008E95D0008E95D000837
:10019000E95D0008E95D0008E95D0008E95D000827
:1001A000E95D0008E95D0008E95D0008E95D000817
:1001B000E95D0008E95D0008E95D0008E95D000807
:1001C000E95D0008E95D000800000000E95D000845
:1001D000E95D0008E95D0008E95D0008E95D0008E7
:1001E000358A0008298A0008E95D0008398A000874
:1001F000E95D0008E95D00080348044B834202D032
:10020000034B03B118477047940D0020940D002054
:100210000000000005480649091A891001EBD17158
:10022000491002D0034B03B118477047940D0020CA
:10023000940D00200000000010B5064C237843B94F
:10024000FFF7DAFF044B13B10448AFF3008001233A
:10025000237010BD980D002000000000C438010874
:1002600008B5054B1BB105490548AFF30080BDE853
:100270000840FFF7CFBF00BF000000009C0D00202A
:10028000C4380108154B002B08BF134B9D46A3F53E
:10029000803A00218B460F461348144A121A0BF07D
:1002A000DDFF0F4B002B00D098470E4B002B00D0EA
:1002B00098470020002104000D000D48002802D0BE
:1002C0000C4802F0ECF90BF0F9FA2000290002F0DA
:1002D000F7FE02F0E1F900BF00000800000008206E
:1002E00000000000D1300008980D00203C6E002076
:1002F0009F26000800000000C36810B504460BB13B
:100300009B689847204610BD884238B504460D4684
:100310000AD0FFF7F1FF3CB1EB681BB15B682946DF
:1003200020469847EB68E360204638BD036870B507
:100330000446051D7BB90D4E4FF0FF31306804F0C7
:100340004DFA236823B915B1284602F0A3FC2560B5
:10035000306804F05FFA2368AB4204D05E2204499F
:10036000044801F035FF206870BD00BF78590020B7
:10037000201F0108771F010830B470B1D2E9004393
:1003800003F0010204B942B15B10C5180AB1C358A9
:100390001C592846234630BC184730BC7047000023
:1003A000354B2DE9F74304460D46164640F8043B0D
:1003B000102200210BF052FF002302A904F11802C1
:1003C000CDE9003311E9030082E803002B492162E3
:1003D00048F207016162E362A4622263284A626311
:1003E000284AC2F88430BFF34F8FD2F8803043F6EA
:1003F000E07EC3F3C907C3F34E334FEA877C5B014A
:1004000003EA0E0960463946013949EA000800F15D
:100410004040B1F1FF3FC2F87482F5D1203B13F1A7
:10042000200FEDD1BFF34F8FBFF36F8FBFF34F8F0F
:10043000BFF36F8F0021C2F85012BFF34F8FBFF38D
:100440006F8FBFF36F8FBFF34F8F04F13C0384F8BE
:10045000381084F83910982218460BF0FFFE0A4A2B
:100460002946C4F8D420324608F0A0FD074B2046A8
:100470001C6003B0BDE8F083941F010801A090E860
:100480007903000800ED00E0A0860100DC0D0020EB
:10049000036870B5094D04461B6898472B68A34252
:1004A00006D0D4F8D41004F13C0008F0FBFC2C601A
:1004B000236820465B68BDE870401847DC0D0020CB
:1004C000F7B51D46036804460E461B681746984755
:1004D0002046FFF7DDFF9DF8203031463A4683F095
:1004E000010304F13C0000932B4608F069FE2368E9
:1004F000064620465B689847A81B18BF012003B03A
:10050000F0BDF7B51D46036804460E461B68174646
:1005100098472046FFF7BCFF9DF8203031463A4609
:1005200083F0010304F13C0000932B4608F0F0FD3A
:100530002368064620465B689847A81B18BF012021
:1005400003B0F0BDC36810B504460BB19B68984773
:10055000204610BD044B10B5044640F8043BFFF79D
:10056000F1FF204610BD00BF941F010810B50446DE
:10057000FFF7F0FFD82120460AF0FAF8204610BD18
:1005800008B50448FFF7D2FE4FF0FF31BDE8084040
:1005900002F088BBB40D002008B50348FFF7C6FE83
:1005A000BDE8084002F088BBB40D0020C36810B558
:1005B00004462BB940F239220449054801F008FEEF
:1005C000E36820461B68BDE810401847A41F0108D7
:1005D000F71F010838B5044648B100F15805AC4290
:1005E00005D02C3D05F11800FFF7ACFFF7E72046DA
:1005F00038BD38B5002504462822294640F8045B5A
:100600000BF02CFE1022294604F118000BF026FEF8
:10061000204638BD10B50A4C2046FFF7EAFF04F12A
:100620002C00FFF7E6FF00232046064AA365064993
:10063000E36584F86030BDE8104002F02BB800BFDD
:10064000E00D0020F8010020D505000803681B69B3
:10065000184703689B69184703689B6A1847002975
:100660000CBF6FF018000020704701207047112068
:100670007047704700F0B2B8A0F1B400FFF7FABFBE
:1006800000F0AFB8A0F1B400FFF7FABF4FF0FF31B0
:10069000CC3002F007BBA0F1B400FFF7F7BFCC30BD
:1006A00002F00ABBA0F1B400FFF7F9BF0C4B03F155
:1006B000080210B5026003F1280288330446C0F82E
:1006C000B420CC3040F8143C02F0FCFA04F1B40041
:1006D00001F046FD204600F07DF9204610BD00BF28
:1006E000FC1F0108A0F1B400E0E7A0F1B800DDE7CD
:1006F00010B50446FFF7DAFFF02120460AF038F87B
:10070000204610BDA0F1B400F2E7A0F1B800EFE779
:1007100038B504461D46049B00F0BEF8294604F196
:10072000B40001F0F1FC084B04F1CC0003F1080225
:10073000226003F128028833C4F8B420C4F8B8302A
:1007400002F0A8FA204638BDFC1F0108704730B4FB
:1007500070B1D2E9004303F0010204B942B15B1069
:10076000C5180AB1C3581C592846234630BC18473F
:1007700030BC704770B501F10906044600EB06165F
:10078000F36893B10D014319D3F89C302BB940F2B3
:1007900039220649064801F01BFD2C443046D4F8A6
:1007A0009C30BDE870401B68184770BD8C20010864
:1007B000F71F010870B505460E46044655F84C3B38
:1007C0001B6898472846314608F078FF2368C4F82C
:1007D000B06020465B68BDE8704018474C3008F0B8
:1007E0006FB810B50C464C3008F07CF8204610BDB0
:1007F000F7B500230D4602A90246041DCDE90033DA
:1008000011E9030084E803002049D16048F20701A0
:1008100011611F4993615561D46111621D49C1F88D
:100820008430BFF34F8FD1F8803043F6E077C3F3C5
:10083000C905C3F34E33AE075B0103EA070E344626
:10084000284601384EEA040C04F14044B0F1FF3F61
:10085000C1F874C2F5D1203B13F1200FEDD1BFF3E5
:100860004F8FBFF36F8FBFF34F8FBFF36F8F002397
:10087000C1F85032BFF34F8FBFF36F8FBFF36F8F4D
:10088000BFF34F8F104603B0F0BD00BF01A090E84A
:100890004F07000800ED00E02DE9F04F04469B46AD
:1008A0002D4B002585B0894640F8043B214604F1D4
:1008B0004C069246FFF79CFF294684F828501022E8
:1008C00084F8295004F12C000BF0C8FC04F19008C6
:1008D0002946102204F13C0004F1A0070BF0BEFCF5
:1008E0002946442230460BF0B9FC294610224046E6
:1008F0000BF0B4FC2946102238460BF0AFFC102256
:100900002946C4F8B0B068460BF0A8FC69464046DA
:10091000FFF7FAFC6846FFF7EFFC1022294668460D
:100920000BF09CFC69463846FFF7EEFC6846FFF783
:10093000E3FC52464946304608F004FFD4F8B010B4
:10094000304608F0BBFE30462246044907F02AFF35
:10095000204605B0BDE8F08FE820010875070008C3
:100960002DE9FF41164603680446884606F109054D
:100970001B68984704F14C0701F0AAFCD8F80C203A
:1009800004EB0515EB68A2B10BB901F071F8414613
:100990002846FFF7B9FC01223146384607F00EFF22
:1009A00001F0ACFC236820465B68984704B0BDE8C2
:1009B000F0810BB101F07EF81022002168460BF0A7
:1009C0004DFC69462846FFF79FFC6846FFF794FCFC
:1009D0000022E1E77FB51A4B044610220021036094
:1009E00068460BF03BFC002269462046FFF7B8FF43
:1009F0006846FFF781FC1022002168460BF02EFCB0
:100A0000012269462046FFF7ABFF6846FFF774FCFA
:100A100014F1900608D004F1B005AE4204D0103DA8
:100A20002846FFF769FCF8E704F13C00FFF78AFD70
:100A300004F12C00FFF786FD204604B070BD00BF16
:100A4000E820010810B50446FFF7C4FFB421204692
:100A500009F08EFE204610BD0368012200211B69AB
:100A60001847036800221B691146184770B51646DF
:100A700004460D46102200214C300BF0EFFB2EB93E
:100A80002946204600F094F8204670BD324629469B
:100A9000204600F060F8F7E700F047B910B50446CB
:100AA00000F098F804F14C00FFF74CFD204610BD13
:100AB0002DE9F041036900F144080E7905460C4622
:100AC00017469E40C368CB1A1E434B699B1A002BE6
:100AD000ACBFD318131C4B61437A40464B7100F0F6
:100AE000EAF92846036873B359696269A1EB020CFD
:100AF000BCF1000F24DB914225D19B68A36013B1A8
:100B000004F108021A610268234643F80C2F1361AE
:100B1000AB6A046020616BB195F8242052B12A6859
:100B2000A24207D1E2682AB96169E86AC91B21EAD1
:100B3000E1719847404600F0C0F93046BDE8F081C9
:100B400003F10800CEE7A36013B104F108021A61B3
:100B50000023E360DCE738B5002304460D46C2609D
:100B6000C0E90433FDB922622560C4E9065100F0F2
:100B70009DF96572606004F13000257284F824509C
:100B8000C4E90A5500F09BF900280BDB04F144008E
:100B900000F08EF9002805DB04F1480000F088F928
:100BA00000EAE07038BD23696D0801332361D9E79D
:100BB00070B5054608460E460AF032FF044630B1CD
:100BC000024631462846FFF7C6FF6C6170BD4FF004
:100BD000FF30FBE770B504460668B6B9A36A1BB1DF
:100BE0004FF0FF31E06A984704F1480000F062F9E5
:100BF00004F1440000F05EF904F1300000F074F9F3
:100C00006069BDE870400AF013BF25680DB9B66889
:100C1000E3E7EB6913B105F124009847ED68F5E7C8
:100C2000F8B500F1480706462731384621F003059C
:100C300000F041F906F11803B46984B9F3699D42E3
:100C400027D8346A5B1B3846F3616219012332628C
:100C50002560237100F031F964B92046F8BD22689F
:100C6000954212D8E2686AB11A60A3689360384668
:100C700000F023F900234FF0FF32E361C4E90532AD
:100C80002434EAE7A2681A60F1E704F10803A468D3
:100C9000D3E7384600F011F9DFE7F8B551F8083C22
:100CA00005460C46A1F124070BB10846984705F10B
:100CB0004806304600F0FFF805F11802AB69ABB109
:100CC000186854F8241C88420CD30FD144F8183CFF
:100CD00013689B6844F81C3C30461760BDE8F84038
:100CE00000F0EBB803F108029B68E8E7002344F842
:100CF000183C1368EEE770B5144605460E4600F042
:100D0000D5F854F8103C0246A4F1240144F8046CD0
:100D10000344284644F8103CFFF7CAFE044605F198
:100D2000300000F0E4F8204670BD2DE9F34704469A
:100D30008846002700F0BAF804F14406054608EB9F
:100D4000000984F82470304600F0B5F8637A01A9F0
:100D50000133637263685B1B002B2368D8BF656037
:100D600001931BB15A69521B002A31DD236003B184
:100D70001C610F60304600F0A0F8019B01A95BBB2D
:100D8000019D002D37D100F091F8B8F1000F824697
:100D900056DBA9EB0005002D54DCA36A9BB130465D
:100DA00000F089F8A36A43B1226832B15169E06A60
:100DB000A1EB0A0121EAE17198470123304684F84A
:100DC000243000F07AF80023237202B0BDE8F087E7
:100DD00003F108019B68C4E7D3F808C01A46002550
:100DE000D0689560154620B90A6003F10801634692
:100DF000C5E70246F4E72B6AD5F808A013B105F160
:100E000024009847AA69002A0BDB6B6913446B61C5
:100E100000F04CF8294602462046FFF749FE5546A9
:100E2000AFE72B7905F12401226920460133DBB2BB
:100E300013FA02F208BF01232B71FFF72EFFEEE732
:100E40004FF0FF35304600F036F823683BB1596962
:100E5000A1EB0A0121EAE1718D4228BF0D4630461F
:100E600000F02BF8294604F1300000F044F8237A12
:100E70007BB1304600F01FF8237A3BB100233046A7
:100E8000237202B0BDE8F04700F017B8304600F01A
:100E900014F800F00BF8054655E740F8101C7047B1
:100EA00040F80C1C704740F8081C704702F060BE08
:100EB00000207047704701F00BBA01F01FBA1FB550
:100EC00004461022002168460BF0C8F9231D68462D
:100ED00002931023039302F0C1FB2060B0FA80F06C
:100EE0004009404204B010BD006802F057BC012127
:100EF000006802F0CDBB08B5002241EAE17300684A
:100F0000012102F005FC431E5842584108BD03462A
:100F100010B107C983E807007047704710B44468F0
:100F2000034681686210E4071B6801EB020048BFBA
:100F30008A585DF8044B48BFD35818474FF0FF312B
:100F4000FFF7AABDF7B51F460E4B04460D4640F805
:100F5000043B1646002110220BF080F9002104F119
:100F6000400001F0DBFE04F1540001F093FE089B09
:100F700020463246009329463B4604F04DFD20466C
:100F800003B0F0BD402E010830B52D4C87B023785A
:100F9000BFF35B8FDB0711D4204601F08DFB68B1F6
:100FA000284A4FF480712848FFF760FD204601F081
:100FB000ADFB264A2649244801F06CFB254D2B78D1
:100FC000BFF35B8F13F0010413D1284601F074FBCB
:100FD00078B14FF4806218211F4B00941F48FFF72F
:100FE000B1FF284601F092FB184A1D491B4801F049
:100FF00051FB1A4804F03EFD10F0EF0402D01248F5
:1010000007B030BD1022214602A80BF027F9154B7E
:1010100002A91248CDE902340B4B0493124B0593FD
:1010200004F094FD054602A8FFF766F9002DE6D00E
:101030000E482A220E4901F0CBF82046E0E700BF17
:10104000101300207013002014130020F80100205A
:101050009D0A0008440E0020100F0020480E0020BA
:10106000FD5A00083D0F0008F82001086121010821
:101070000421010808B5FFF787FF08BD38B5CB6824
:1010800004460D460BB15B689847EB682046E36069
:1010900038BD08B5FFF730F908BD08B5FFF786FA87
:1010A00008BDC36810B504460BB19B68984720463D
:1010B00010BD000002684F4B9A42F0B58DB040F071
:1010C00097804D4A0023C2F88430BFF34F8F536995
:1010D00023F480335361BFF34F8FD2F8803043F64F
:1010E000E076C3F3C904C3F34E33A5075B0103EAFB
:1010F000060C284621464CEA0007013900F1404021
:10110000C2F874724F1CF6D1203B13F1200FEED1C0
:10111000BFF34F8FBFF36F8F384C00260CAD3848AC
:10112000236B43F001032363236B03F0010300935C
:10113000009B236B43F002032363236B03F0020342
:101140000193019B236B43F004032363236B03F0A0
:1011500004030293029B236B43F040032363236B3E
:1011600003F040030393039B03230A930223CDE977
:1011700008360B230B93862345F8143D294605F0CA
:10118000EFFA4FF4005329461E48079305F0E8FA9A
:10119000322329461C48079305F0E2FA42F604037D
:1011A00029461A48079305F0DBFA324607213D200D
:1011B00004F056FE3D2004F085FE236B43F00073DF
:1011C0002363236B03F000730493049B236B43F0AE
:1011D00080632363236B03F080630593059B236B7C
:1011E00043F000632363236B03F000630693069BC5
:1011F0000DB0F0BD0080024000ED00E0003802407C
:1012000000000240000402400008024000180240B2
:1012100010B59EB004467422002101A80BF01EF800
:101220004FF400734FF48062CDE9072340230E93FF
:101230001023129380231793E3690BB100230793C4
:1012400001A9204605F000FA1EB010BD40F2DC50A6
:1012500070470020704706207047704770477047FE
:10126000C0F828117047034610B107C983E807008A
:101270007047704710B44468034681686210E40701
:101280001B6801EB020048BF8A585DF8044B48BF59
:10129000D3581847032A0846024928BF03220AF0F8
:1012A000DFBE00BFA22101082DE9F04F076B85B01A
:1012B00000240546BB6803914FF0FF31019300F114
:1012C000E403A0461846009301F0ECFC039E002EB8
:1012D0005BD03B68002B1ADA00246A6841F21403E1
:1012E000D158890606D52021D15041F204036A68FD
:1012F0000021D150D5F8280103990368DB6898478D
:10130000009801F0D9FC204605B0BDE8F08FD5F873
:10131000280131464FF0000A0368DB6A984781468E
:10132000019B04EB090BD5F82801314623440268E0
:10133000029340F2F453926A9B4515D9C4F5BE64FA
:10134000904700EB0A010298043422460AF088FE16
:10135000FF683A68002ABFDBBB68A244A044ABF236
:10136000F45901930024DBE790474A4600EB0A0159
:1013700002980AF075FED5F828013146C844026883
:101380005C46526A90470646A1E74146281D04F094
:10139000D3FE0124A1E7000038B50546104C6B6868
:1013A000D3F8C42122B14FF0FF3001F0ABFFFAE7D0
:1013B000D3F894310A2B0FD9636823F400036360D8
:1013C000636843F4000363606A68D2F8003143F055
:1013D0000103C2F80031E2E7642001F093FFDEE789
:1013E0000038014038B50C4B00250446E43040F885
:1013F000E43C40F8985C01F04DFC2946102204F5CD
:1014000084700AF02BFF1022294604F58C700AF034
:1014100025FF204638BD00BFB02101082DE9F74F58
:10142000044604300D4604F0F3FE024600286BD15A
:10143000D4E910168BB233B1D4F8280189B203680D
:101440005F68B84728602D68002D3ED0D4F83490EE
:101450004FF0000840F2F45B0096D4F828012946CA
:10146000464600270368DB6A9847024606EB0208F7
:10147000D4F8280100990368D84501EB060A9B6A55
:1014800012D9ABEB060629469847514632463844F6
:101490000AF0E6FDD9F80C903744A8F2F452D9F8D6
:1014A000083000260093E1E7294601929847019A07
:1014B000514638440AF0D4FDD4F82801294603687F
:1014C0005B6A984705460028C7D1636B0022E16B31
:1014D000914206D91968013241F000411960DB6878
:1014E000F5E70022656841F21401E263685810F0E4
:1014F000800006D0802310466B5041F208036168DB
:10150000CA5003B0BDE8F08F4FF0FF30F9E700009C
:101510002DE9F74304460027DFF84480DFF84490C4
:1015200002A9204641F8047DFFF778FF002814DB6C
:10153000019D002DF4D0D4F8143104F584762BB934
:1015400040F2A9424146484600F042FED4F8143128
:10155000294630461B689847E2E703B0BDE8F083B0
:10156000A41F0108F71F010838B50E4C0546237863
:10157000BFF35B8FDA0708D4204601F09DF820B155
:10158000094B20461D6001F0C1F8074C4FF0FF32B7
:101590000021012004F010F9C307F7D52068FFF7F8
:1015A000B7FFF3E7144500204C46002008B53D2066
:1015B0000022072104F054FC3D20BDE8084004F05F
:1015C00081BC0020704700000022064B1B6802709F
:1015D000802243714270E12282701A0CC2701A0A92
:1015E0000271704720F4F01F10B50446FFF7E9FFC1
:1015F00020B92046BDE81040FFF7E6BF10BD00004F
:1016000037B5184B01254FF480420446C0E9013537
:101610004FF40063C0E90323002383826846FFF789
:10162000E3FF4FF40003C4F818D06362C4E9075520
:101630000434204604F0D0FE04230B4A20460B4914
:1016400004F004FD04230A4A20460A4904F03AFD46
:101650002046FFF7DDFD204604F0B8FF284603B022
:1016600030BD00BF00800240402D0020F01400205B
:101670007015002070140020084608B5FFF7B4FF6D
:10168000012008BD10B50B4C2378BFF35B8FDB073F
:101690000ED4204601F010F850B10748FFF7A2FE23
:1016A000204601F033F8054A0549034800F0F2FFEF
:1016B000014810BD1045002018450020F801002009
:1016C0004118000808B5FFF7DDFFC06C20B101210B
:1016D000BDE8084004F02EB808BD08B5FFF7D2FFFA
:1016E0000430BDE8084004F0CDBD0000F0B58BB07B
:1016F0000446FFF785FF0646002870D0202200210F
:1017000002A80AF0ABFD374B4FF4007001930AF0CA
:1017100087F904F1500301AA2146059003934FF481
:10172000007331480693482304932823079303F05A
:10173000CFFFE064FFF79EFC10220746002101A8BE
:101740000AF08CFD294B1021384601930023CDE986
:101750000234274B0493FFF763FA0546B8B1049BA4
:1017600013B15B6801A99847049BC8212846EB6028
:10177000FFF793FBC8212846FFF792FB1D49284637
:10178000FFF791FB2A461C493846FFF7B4FAC4F824
:10179000300101A8FEF7B0FD2022002102A80AF0C6
:1017A0005DFD164B4FF4007001930AF039F904F116
:1017B0009803059001AA214603934FF40073104843
:1017C0000693482304932823079303F081FFC4F86A
:1017D000E0000A2001F096FD2046FFF7E7FE3046C4
:1017E0000BB0F0BD7C21010869150008C118000884
:1017F00070210108931000089B1000088E21010839
:1018000099130008C36810B504460BB19B6898474C
:10181000204610BD70B500F5847506460C468D4215
:101820000CD02846FFF7EEFF45B1E3681BB15B68BB
:10183000214628469847E368C6F8143170BD000079
:10184000084B10B50446036000F58C70FFF729FCC7
:1018500004F58470FFF7D6FF04F1E40001F032FADA
:10186000204610BDB021010870B500F58C75064604
:101870000C468D420CD02846FFF713FC45B1E368B7
:101880001BB15B68214628469847E368C6F82431B7
:1018900070BD0000C36870B504460D462BB940F218
:1018A000A9420549054800F093FCE3682946204613
:1018B0001B68BDE870401847A41F0108F71F010806
:1018C00013B5044601AA0121043004F013FDB0B998
:1018D000D4F8243183B10199D4F82C3111F00401EA
:1018E00003F0040306D03BB9012104F58C70FFF727
:1018F000D1FF01E0002BF8D1019BC4F82C3102B0DC
:1019000010BD0000EFF31083DB4372B6044A117878
:1019100029B903F0010303490B70012313707047C9
:10192000514600205046002008B5EFF31083DB0736
:1019300004D436220549064800F04AFC054B002233
:101940001A70054B1B7803B162B608BDEC21010883
:101950004B220108514600205046002038B504466D
:101960000D4603685AB1826820461360012107F0D2
:1019700051F929462046BDE8384007F047B9C2680A
:101980001B04F1E770B50E460446154607F01EF934
:10199000013606D02A4620460021BDE87040FFF7F8
:1019A000DDBF70BD0022FFF7EDBF000013B5044698
:1019B00001300FD102B010BDA3420AD12046896880
:1019C00007F03EFD0021204602B0BDE8104007F0C0
:1019D000D1BD0C31B1F900305A1CEDD100232246A3
:1019E00002490093024800F095FDE3E796220108C2
:1019F00030010180884207B502460BD0431C09D054
:101A000001310BD0002306490648009300F082FD07
:101A10004FF0FF31084603B05DF804FB0146F9E7DB
:101A20006522010830010180B1F900305A1C01D152
:101A300018467047834201D1486870470C31F3E77C
:101A4000421C13B504460BD0FFF7EEFF431C0446BF
:101A500006D10023024604490093044800F05AFDD1
:101A6000204602B010BD00BF76220108300101807F
:101A700013B50D4C00F02CFC4FF6FF7322889A42F0
:101A800008D100F03BFC0023228800930749084856
:101A900000F040FD0121044800F03EFC02B0BDE82A
:101AA000104000F02BBC00BF52460020A7220108C6
:101AB0002301048037B50B4D00F00AFC2C8844B993
:101AC00000F01CFC2A88009423460749074800F0D0
:101AD00021FD0121034800F029FC03B0BDE830409E
:101AE00000F00CBC52460020CC22010824010480E6
:101AF00008B500F0EDFB064B1B882BB907F066FF1D
:101B0000BDE8084000F0FABB07F054FFF8E700BF5B
:101B1000524600202DE9F34DD0E9003804465B68B9
:101B2000984763681B6A83425CD0D8F82010002570
:101B3000D8F80C30411AC8F82000D8F808603648A8
:101B4000194086420C4646D0A1FB001298F8393065
:101B50000027D8E90AABCDE90012002B45D0009947
:101B6000C3F1200CA3F1200221FA03F4019901FA38
:101B70000CFC21FA02F221FA03F544EA0C04A3F169
:101B8000200CDDE900011443C3F1200210EB0A0030
:101B900004FA0CFC24FA02F241EB0B0105FA03FBF8
:101BA00004FA03FA4BEA0C0B4BEA020BB0EB0A0205
:101BB00061EB0B03BB4208BFB24202D2C8E90A2361
:101BC00009E0013445F10005921B63EB0703104661
:101BD0001946C8E90A01D8E90C01021941EB0503CD
:101BE000C8E90C2302B0BDE8F08D32463B46DDE982
:101BF00000010FF0F9FF044612EB0A000D4643EB1B
:101C00000B01B94208BFB042E3D3013445F10005EE
:101C1000821B61EB0703D1E740420F00824206D9E5
:101C20008A420BD9884294BF002001207047884225
:101C300006D98A428CBF00200120704701207047DE
:101C4000002070472DE9F14F8146D0F80480FFF75E
:101C500061FFD9F80450D9F800A06B68002B58D068
:101C6000D5E90C01D3E90067B94208BFB04205D3FA
:101C7000DAF8143001B0BDE8F04F1847361A2C6975
:101C8000D5E9062367EB0107BB4208BFB24206D382
:101C9000AB68284A93421DD1B44228BF34462A6A11
:101CA000D8F820301444EA681440A342E0D0DAF8AF
:101CB000103020469847D9F800305B689847224694
:101CC0000146D8F82000FFF7A9FF80B3D9F800300B
:101CD0005B69CFE795F83900A0B1A0F12003C0F10E
:101CE00020018740134A06FA03F326FA01F106FAA7
:101CF00000F01F43002339430FF076FF844228BFD2
:101D00000446CCE7A3FB06010A4A03FB07110023A4
:101D1000F2E7D8F81030D8F82000D8F80C20184492
:101D2000DAF81030104001B0BDE8F04F184701B0AC
:101D3000BDE8F08F40420F002DE9F84F436804469C
:101D400093F83830002B5CD103681B6898472368F0
:101D50009B699847066805462EB92B4E29222B49C8
:101D60002B4800F035FA1F23012202FA03F15FFA33
:101D700083FAB14202D0013BF7D19A466D682B1F1E
:101D80001C2B05D9202537222049214800F020FAB4
:101D90002B1F072716F1FF30DFF86CC007FA03F797
:101DA0004FF00003324643F1FF31CCFB07010FF047
:101DB0001BFFD4F804B0002389468046CBE90033EA
:101DC00023685B689847CBF82000012061680023F6
:101DD000002200FA05F58E6081F839A0013D81F8F6
:101DE00038002046C1E90A23C1E90357C1E9068941
:101DF000C1E90C23FFF78EFE2046BDE8F84FFFF740
:101E000021BFBDE8F88F00BF40420F00EA22010861
:101E10002224010870B5044600F05AFA2368DB68F2
:101E2000984763685B68A3B12046FFF773FE656857
:101E30006E68D5E90C01D6E90023994208BF9042AB
:101E400007D3F3686B602B68002BEAD0B068984723
:101E5000E7E72046FFF7F6FEBDE8704000F04EBA17
:101E600010B50446FFF768FF00F032FA2046FFF78E
:101E700051FE00F043FA6368D3E90C0110BD08B5C8
:101E8000FFF7EEFF08BD000000487047402301083F
:101E9000024B1B680BB1024818477047FC01002039
:101EA00040230108007B704738B50E4B0D46027386
:101EB000044603600023C0E901310B48FEF736FAFF
:101EC0004FF0FF3100F0EEFE55B1084B1A681C6070
:101ED00062600548FEF72AFA00F0EEFE204638BDA3
:101EE0006560F6E76C2301089C46002098460020B8
:101EF000124B10B5036004461148FEF717FA4FF075
:101F0000FF3100F0CFFEA3682BB10E4A1368A34245
:101F10000ED1636813600A48FEF708FA00F0CCFEA1
:101F2000237B13B9201F00F05FFD204610BD134630
:101F30005A68A242FBD162685A60ECE76C23010840
:101F40009C4600209846002010B50446FFF7D0FFBD
:101F50001021204608F00CFC204610BD70B5064646
:101F60000F480D46FEF7E2F94FF0FF3100F09AFE00
:101F70000C4B1C685CB1A06880B12A4631460AF05F
:101F80006DFF58B9A0680AF0FBFEA84206D10448CC
:101F9000FEF7CCF900F090FE204670BD6468E9E7DA
:101FA0009C46002098460020002070470020704783
:101FB0000368012200211B6970B504469847051E7D
:101FC0000DDB23680222002120461B699847064644
:101FD00023682946354600221B6920469847284633
:101FE00070BD000070B50E46002504461049C0E9DA
:101FF000005530460AF0B0FF0644266023681A7880
:102000002F2A0ED10133236025B9292209490A4814
:1020100000F0DEF829463046FFF7A0FF606020465A
:1020200070BD002AF0D0013301352360E6E700BF20
:10203000C4230108C62301081B2401080068704757
:10204000406808B520B1FFF72DFF431E58425841A4
:1020500008BD10B50446FFF7F3FF10B1606800B18A
:10206000043810BD406808B520B1FFF71BFFB0FA77
:1020700080F0400908BD10B50446FFF7F3FF10B12A
:10208000606800B1043810BD4068003018BF0120FE
:1020900070477047704700207047F8B50E460368D8
:1020A00004468F1835461B6D9847BD42236806D0FD
:1020B0009B6C204615F8011B98470130F5D1236829
:1020C00020465B6D9847A81BF8BDF8B50E4603681F
:1020D00004468F1835461B6D9847BD42236807D0CC
:1020E000DB6C20469847431C02D005F8010BF4E74F
:1020F000236820465B6D9847A81BF8BD00207047F9
:102100000020704770470000104B002213B50446B2
:1021100040F8043BFFF7C8FE0D4B0E4920462360F4
:10212000603363600023636100F0B6FC03466061C6
:1021300020B100F0B6FA204602B010BD0090024671
:102140000549064800F0E6F9F5E700BF7C230108E1
:10215000A4240108842401088724010819010180AE
:102160000A4B03F10802683310B50446026043606D
:10217000406908F0C5FC064B20462360503340F808
:10218000043FFFF7B5FE204610BD00BF9C240108A8
:102190002C2401080EB4036877B507AD04461B6D07
:1021A00055F8046B98476069019508F089FD019A1C
:1021B000314660690EF006F82368054620465B6DDF
:1021C0009847284603B0BDE8704003B07047000050
:1021D00070B504460D46164600F07AF82A462146A8
:1021E0003346034800F05AF8BDE8704000F002B8EA
:1021F0000C25010810B588B000F06AF8102101A87C
:10220000FFF7D0FB0424039B9620019A1A6000F08C
:1022100015FD019B049A96201B04136000F00EFD2F
:10222000013CF0D10424039B4FF4C870019A1A605A
:1022300000F004FD019B049A4FF4C8701B04136066
:1022400000F0FCFC013CEED1DCE7000070B50D466F
:10225000A0B0044600F03CF82B4680212246684698
:102260000EF036F8051E11DD0A4B1B6823B9392222
:102270003821094807F066FA0024074E1DF80410BB
:102280000134304606F02EFBA542F7D100F036F8B7
:1022900020B070BD244E0020846D00200FB407B51F
:1022A00004A951F8040B0191FFF7D0FF03B05DF8CA
:1022B00004EB04B07047EFF31080C04300F001005E
:1022C0007047EFF30580003018BF01207047000011
:1022D00010B5074C2368013304D15522054906483F
:1022E000FFF776FFFFF70EFB23680133236010BD75
:1022F000C44600203D25010895250108054B1A68B4
:1023000032B11A68013A1A601B680BB9FFF70CBBAF
:10231000704700BFC4460020D0E85F3F0B449BB22B
:10232000C0E8523F002AF7D118467047D0E85F3F17
:102330005B1A9BB2C0E8523F002AF7D1184670479B
:102340002DE9F041254C8EB0254E0F46237890465E
:1023500036EA200628BF0646012B00D1FEE7FFF72C
:10236000B7FF204D01232370FFF7C8FF2B68002221
:10237000342101A801332B6009F070FF1A4B039739
:102380005B69DA6B049305925A6B1B6B0692079399
:10239000CDE90168EFF30583CBB1EFF30883089330
:1023A0002B68012B04D1342201A9104809F058FEF2
:1023B000342201A90E4809F053FE0E4B1B680BB1E5
:1023C0000B489847002020700EB0BDE8F081EFF375
:1023D00014839B07E1D5EFF30983E0E7D0460020A3
:1023E0000101FF80C846002008030020D4460020D9
:1023F00008470020CC46002073B5274C06462748E6
:102400002168C1F34173032BC1F307430CBF4D4255
:102410008DB22A46FFF742FF6FF498731D44072DD3
:1024200009D8DFE805F0042326292C322F35A168CE
:102430001B48FFF733FF3046FFF730FF616819484C
:10244000FFF72CFFA1681848FFF728FFE369E16850
:102450000193A36915480093D4E90423FFF71EFFF5
:10246000134802B0BDE87040FFF718BFA1681148DB
:10247000DFE7A1681048DCE7A1681048D9E7A16848
:102480000F48D6E7A1680F48D3E7A1680E48D0E708
:10249000A1680E48CDE700BF08470020DB250108F2
:1024A0002C260108B9260108C9260108DC260108E6
:1024B0002B27010841260108502601085E26010845
:1024C000702601088326010896260108A426010823
:1024D0000FB437B50C4D7246297879B90B480124F1
:1024E000FFF72EFF0A48FFF787FF07A906982C7011
:1024F0000191FFF7ABFE204600F0CEF803B0BDE837
:10250000304004B0704700BFD04600200001FF807B
:10251000C625010810B50C4611467246FFF710FF9C
:1025200068B92046FFF768FFFFF7CBFE10B9FFF749
:10253000C2FE08B930BFFDE7012000F0ADF8014848
:1025400010BD00BF0F01FF806FF01C0070476FF0DF
:102550001500704701207047002070477047000049
:10256000014B186802F056B978590020F8B51546A5
:102570000C468F18054EBC4205D014F8011B30469E
:1025800006F0B0F9F7E72846F8BD00BF846D0020DB
:1025900038B58DB215F0010405D0084807F042F8AF
:1025A000041C18BF0124EB0605D5044807F04AF8BF
:1025B00008B144F01004204638BD00BF846D0020EF
:1025C00010B50446042108F0D3F8204610BD0000E1
:1025D00010B50C462AB1044806F072F920700120AB
:1025E00010BD1046FCE700BF846D002038B51D46C5
:1025F000074B04460360074B1B6833B9064807F0D6
:10260000A1F82946044807F059F8204638BD00BF14
:1026100050270108244E0020846D002000207047C0
:102620000020704708B5012000F036F80C4B1A68FE
:1026300010B51044EFF30881884206D30C22094BF1
:102640001A604FF0FF32104610BD07490C6824B1E4
:102650000649096821448842F0D21860F3E700BFB8
:1026600000030020386E00206C47002070470020D7
:10267000074C054608B52368986808F021FB2368D5
:10268000D86808F01DFB0DB1FFF7B4FDFEE700BFF1
:10269000B40300200120704708B5FFF7E9FF0120CF
:1026A000704700210AF090B808B500F031FD08BD70
:1026B00008B500F035FD08BD10B50378044603F0F9
:1026C0000303012B0CD00E4B4FF0FF31186802F0C2
:1026D00085F8237803F00303012B03D1FFF740FFB4
:1026E00000200BE02BB140F2A95206490648FFF743
:1026F0006FFD2378012043F00203237010BD00BF5B
:1027000078590020D42701082E28010810B5037835
:10271000044603F00303022B05D040F2B1520749EF
:102720000748FFF755FD237823F0030343F0010327
:102730002370BDE81040FFF713BF00BFD427010886
:10274000542801083F2870B504462FDC184D55F871
:1027500020305A1C13D1022811DCFFF761FF034619
:1027600058B92046FFF75AFF034630B9114E337867
:10277000BFF35B8FDB0704D50F4B45F824301846B9
:1027800070BD3046FFF798FF0028F5D04FF4165380
:10279000392238210848FFF729FF3046FFF7B6FFF6
:1027A000064A07490448FFF775FFE5E70023E6E717
:1027B000000200203C47002068470020F80100206C
:1027C0005D25000838B505460024FFF7BBFF0B4B1D
:1027D00043F8254030B908F025F9092303604FF08C
:1027E000FF3038BD03685B699847051E04DA6D4207
:1027F00008F018F90560F2E72046F2E70002002031
:10280000FFF7E0BF38B50C461546FFF79BFF38B918
:1028100008F008F9092303604FF0FF34204638BD63
:10282000036821462A46DB689847041EF6DA6442AC
:1028300008F0F8F80460EFE708B5131E06DA08F0B0
:10284000F1F8162303604FF0FF3008BD04D0FFF706
:10285000D9FF40EAE070F8E71846F6E738B50C46CD
:102860001546FFF76FFF38B908F0DCF8092303605D
:102870004FF0FF34204638BD036821462A469B6846
:102880009847041EF6DA644208F0CCF80460EFE7DB
:10289000002A08B503DBBDE80840FFF7DFBF08F0FA
:1028A000C1F8162303604FF0FF3008BD10B5FFF7E5
:1028B00049FF044628B908F0B5F80923036020460B
:1028C00010BD0368DB699847041EF8DA644208F01B
:1028D000A9F804600024F2E71FB504220C46402347
:1028E00001900DEB02010DF109008DF8083009F09F
:1028F000B7FB214602A808F025FB044630B1019839
:10290000FFF7D4FF10B12046FFF7CBFE204604B0FE
:1029100010BDFFF7CBBF38B50C461546FFF712FFC9
:1029200038B908F07FF8092303604FF0FF342046E0
:1029300038BD036821462A461B699847041EF6DA0B
:10294000644208F06FF80460EFE7FFF7E4BF38B5C2
:102950000D46FFF7F7FE044630B908F063F8092387
:1029600003604FF0FF3038BD0368DB6998470028EB
:10297000204614BF4FF400534FF400436B602368AC
:102980009B6A984728610020EDE7FFF7E0BF000051
:1029900037B5054609F044F8044630B900900346BF
:1029A0002A4603490348FFF7B5FD204603B030BD72
:1029B000B72701081F01018037B5054609F030F837
:1029C000044630B9009003462A4603490348FFF7FE
:1029D000A1FD204603B030BD982701081F010180EA
:1029E00009F026B809F024B810B504460C48FDF7E4
:1029F0009DFC4FF0FF3100F055F90023094A1946BC
:102A000052F82300A04208BF42F823100133402BA4
:102A1000F6D10348FDF78AFCBDE8104000F04CB940
:102A2000404700200002002010B513480324FDF7A2
:102A30007DFC4FF0FF3100F035F9104B53F82420A6
:102A40007AB10134402CF9D107F0ECFF18234FF094
:102A5000FF3403600848FDF769FC00F02DF92046BB
:102A600010BD4FF0FF32044843F82420FDF75EFC10
:102A700000F022F9F3E700BF4047002000020020E9
:102A800010B50446FFF7D0FF0028A4BF014B43F860
:102A9000204010BD0002002070B506460C46FFF72E
:102AA000EFFF054690B12146FFF716FF044630B907
:102AB000074B53F82520964203D143F825002046C2
:102AC00070BD07F0AFFF09230360F8E70446F6E79F
:102AD000000200200EB42DE9F04185B00546FFF755
:102AE000A3FF041E13DB0023294602A81E4D0193F9
:102AF000FFF778FA02A8FFF7C7FA064668B907F0A9
:102B000091FF1323036045F824604FF0FF34204603
:102B100005B0BDE8F04103B0704702A8FFF7A2FA84
:102B2000074602A837B1FFF7A6FA0190019B45F8C6
:102B30002430ECE7FFF78DFA06460028DFD0036863
:102B400002A8D3F80880FFF779FA0B9B024601A987
:102B50003046C04706460028E8D0764207F062FFBC
:102B6000066045F82470D0E70002002073B50E46D9
:102B70001849054609F088FF044620B9FFF7E2FD31
:102B8000204602B070BD1449284609F07DFF20B9E7
:102B900001200124FFF7D6FDF2E71049284609F08D
:102BA00073FF20B902200224FFF7CCFDE8E72B7861
:102BB000402B07D10422691C0DEB020009F050FAEA
:102BC000019CDDE726F400412846FFF783FF044619
:102BD000D6E700BF9B280108A22801089328010816
:102BE00070B50446FFF750F90646FFF748F9B4F50B
:102BF0007A7F05460CDBFFF75EFB48B1FEF738FF36
:102C00004FF47A70B4FBF0F002F075FFFEF752FF5C
:102C10003046FFF734F9401BA042F9D370BD0000E5
:102C200007EE100ADFED047A67EE277AFDEEE77A09
:102C300017EE900AFFF7D4BF002474494FF47A735B
:102C40005843FFF7CDBF00007FB5061D05460C4673
:102C50001C220021304609F001FB0B4B684602960E
:102C6000002C08BF1C461C2303930B2300940193E4
:102C700001F09AFD286020B9322204490448FFF788
:102C8000A7FA04B070BD00BFAA280108C328010834
:102C900011290108002110B504460162FFF7D4FF95
:102CA000204610BD10B50446006801F097FD10B92C
:102CB000236A0133236210BD036A013B036200688B
:102CC00001F0A8BD10B50446006801F0BDFD204626
:102CD00010BD0000F0B5051D85B004460F46164630
:102CE00000211022284609F0B9FA00236A46394625
:102CF00030460295CDE900331023039301F0C6FE60
:102D0000206020B92C2203490348FFF761FA05B07F
:102D1000F0BD00BF152901086729010810B5044658
:102D20004FF6FF72FFF7D6FF204610BD006801F096
:102D3000CBBE10B50446006801F0FEFE204610BD73
:102D40004FF0100300F00CB84FF0200300F008B86B
:102D50004FF0300300F004B84FF0400300F000B82B
:102D6000EFF308804FF0040172460A4201D0EFF3FE
:102D700009809C46244902680A60043142680A605E
:102D8000043182680A600431C2680A600431F0C10B
:102D900047460F6004314F460F60043157460F60BD
:102DA00004315F460F60043102690A6008314269EC
:102DB0000A60043182690A600431C2690A60043120
:102DC000034620334FF40076324200D00433754678
:102DD0004FF01006354200D148330C46103C2360BA
:102DE000EFF309820A600431EFF308820A600431CC
:102DF00072460A600431EFF314820A60034B6046A6
:102E00000149034A9847FEE7AC580020012F00080B
:102E100008030020F0B52C4C85B000252B4F26462A
:102E200054F82520294601353846FFF737FA0D2D8D
:102E3000F6D1A36C26480293636C0193236C009334
:102E4000616BD4E90E23234CFFF728FA224821684E
:102E5000FFF724FAE16AA26AA36AA06AD2B2256BDC
:102E6000C3F30723E76B000CCDE9015700901B4823
:102E7000FFF714FAA36A1D0603D5616B1848FFF724
:102E80000DFAA36A180403D5A16B1648FFF706FADA
:102E9000F36C190712D51448FFF700FA336DDA07FF
:102EA0000FD51248FFF7FAF9F36C5B074CBF1048D7
:102EB000104805B0BDE8F040FFF7F0B90E48FFF745
:102EC000EDF90E48EEE700BFAC580020032A0108D8
:102ED000102A010800ED00E0592A0108662A0108BD
:102EE000AF2A0108BC2A0108C92A0108D82A01080A
:102EF000082B0108142B0108F82A0108E52A01080B
:102F000013B504461648FFF7C9F9302C19D0402CE8
:102F10001CD0202C1FD1134C1348FFF7BFF91348C6
:102F2000FFF7BCF9FFF776FF1148FFF7B7F9002369
:102F3000104A204600931049D26BFFF7EBFA02B01B
:102F400010BD0E48FFF7AAF90D4CE8E70D48FFF752
:102F5000A5F90D4CE3E70D48FFF7A0F90C4CDEE7AF
:102F6000732901083E01FF809C290108C929010835
:102F7000D4290108AC580020F3290108AB29010825
:102F80003F01FF80B42901084001FF80BF290108EB
:102F90003D01FF8038B515480B25154B1C244560B5
:102FA0000360144BC460836001F0FEFB124B186099
:102FB0001248134BC460C0E90035124B836001F026
:102FC000F3FB114B18601148114BC460C0E9003588
:102FD000104B836001F0E8FB0F4B186008F06EFCAB
:102FE0000021BDE83840084600F06AB82C5900209E
:102FF000482B010800590020785900201C59002056
:10300000582B01087C590020745900203C5900209D
:10301000652B0108985900204C5900200A4A0B489A
:10302000C2F1005303F50023B3F5806F194628BFA2
:103030004FF480615B1A01600549981808600549E2
:103040000B60054B1A6070473C6E002074470020EF
:10305000784700206C470020704700207047000030
:1030600013B5104B0021104C104823614FF48053CE
:10307000224663614823E3600D4BA3601823A361DC
:103080000C4B236002F024FB034628B90090224633
:1030900009490A48FFF73EFA02B0BDE8104000F0C7
:1030A00043BD00BF005A002050590020952F000852
:1030B000B4590020202B01082C2B01081D01018090
:1030C00008B5FFF7CBFFBDE8084006F0EDBD0000F6
:1030D00008B5FFF7A3FF0C4B0C4998684FF000535D
:1030E000C21802F16042126843F8042B8B42F7D1F8
:1030F000054B4FF000529A6006F02EF900F0E4FC08
:10310000BDE80840FFF7ACBF00ED00E0C8010020BB
:10311000024B4FF0FF31186801F060BB745900207A
:10312000014B186801F076BB7459002008B500F017
:103130006DF8FCE7044607B502F0CEFA621E0023E4
:10314000042A2CD8DFE802F0030B131B23000093A2
:103150000122002316491748FFF7DCF9FEE7009328
:103160000222002314491548FFF7D4F9F6E700932B
:103170000322002312491348FFF7CCF9EEE700932E
:103180000422002310491148FFF7C4F9E6E7009331
:10319000052200230E490F48FFF7BCF9DEE7009334
:1031A000224600230C490D48FFF7B4F9D6E700BFCB
:1031B0006F2B010825010280902B01082601028057
:1031C000B52B010827010280EA2B010828010280A3
:1031D000252C01082A010280652C010800010280CB
:1031E00008B502F079FABDE8084002F0D3BB02F05E
:1031F000D1BB08B5FFF76CF8FEF73AFCFEF778FC98
:10320000FEF758FCBDE80840FFF778B8024C08B557
:1032100023689847FCE700BF040300201EF0040F5A
:103220000CBFEFF30880EFF30980816911F8021CED
:10323000B9BB01B590E80F10E047BDE800508CE83D
:103240000300274B93E80600914208BF704741B93D
:103250001EF0100F10D12349086820F0010008600B
:103260000AE02CE9F00F1EF0100F08BF2CED108AB9
:10327000C1F838C081F822E001F0C2FE184B93E893
:1032800006001A6092F82210906B61F0FF0E1EF09B
:10329000100F08BFB0EC108AB0E8F00F80F3098877
:1032A0007047114A13689942FAD801B552F821C003
:1032B0000FC8E047BDE80050CCF80000704701B5EA
:1032C00001F09EFCBDE80140EFF3098CB9E701B5C0
:1032D00001F05AFCBDE80140EFF3098CB1E70000B2
:1032E0001C03002034EF00E02C2D010808B5014636
:1032F00028B1132002F06EF808B900F088FA002017
:1033000008BD000010B5044600F080FAEFF3058315
:103310003BB100206FF0050100F067FA6FF0050087
:1033200010BDEFF31083002BF3D1EFF31183002BCB
:10333000EFD12046DFF804C000DFF1E7ED320008EE
:10334000EFF310832BB9EFF31180003018BF012089
:10335000704701207047000038B560B38468056885
:103360006CB114F0030302D1C2680F2A13D80024F1
:103370006FF00801002000F04CFA204638BDC36809
:10338000002BF4D1134BD3F89000B0B100F0B4FC93
:103390000446C8B10123A37040F203120023656004
:1033A000228029460C4A2046C4E90233094B5A665A
:1033B00000F031FAE1E70546E4E701221021D3F8F5
:1033C000800000F009FCE3E76FF0040100F021FA4F
:1033D000D3E700BF080300207535000810B5044688
:1033E00010B10378032B07D020466FF0030100F0E3
:1033F00010FA6FF0030010BD437833B96FF002018B
:1034000000F007FA6FF00200F5E7002343708368CD
:1034100063B1204601F05FFD00226FF0020101F070
:1034200059FEA0680028F4D101F026FEA378DB073E
:1034300006D5084B2146D3F8900030B100F08AFC45
:10344000204600F0F1F90020D5E7D3F8800000F025
:1034500001FCF5E708030020930710B502F0010412
:1034600022D400F10C0384B153E8000F00EA0102FA
:103470008A4203D0BFF32F8F002005E020EA01022B
:1034800043E8002404B1EFE710BD53E8000F084201
:1034900003D1BFF32F8F002005E020EA010243E8AB
:1034A000002404B1F1E7EFE7C06801EA00031CB1B2
:1034B000994218BF0020E7E7002B08BF0020E3E790
:1034C0002DE9F84399462A4B05460E46D3F8148059
:1034D0001746B8F1000F08D14FF0FF346FF0070125
:1034E00000F097F92046BDE8F88320B10378032B5C
:1034F00001D1002907DA6FF00301284600F089F9AD
:103500006FF00304EEE7437833B96FF0020100F087
:1035100080F96FF00204E5E7FFF79EFF044628B14B
:1035200003463A46284600F07CF9DBE7B9F1000F84
:1035300018D028464B463A4600F071F9C8F8246086
:1035400088F823704946432001F044FF30B14146DA
:10355000284601F0ADFC6FF00104C3E7284600F0F7
:103560005FF9F8E73A46284600F05CF9D1E700BF7A
:1035700008030020F8B5437805460BB1846804B908
:10358000F8BD94F823202846616AA768FFF764FF16
:10359000064670B1204601F0A8FC002231462046C4
:1035A00001F098FD334694F823202846616A00F024
:1035B00038F93C46E3E72DE9F041064620B10378AF
:1035C000032B01D1002909DA6FF003056FF0030125
:1035D000304600F01EF92846BDE8F081437833B943
:1035E0006FF002016FF0020500F013F9F3E700F14C
:1035F0000C0353E8002F42EA010543E8005000B1F4
:10360000F7E7B4683CB9204601F036FD294630465C
:1036100000F003F9DFE794F823203046616AD4F81C
:103620000880FFF719FF0746B0B194F823309B07D5
:1036300056BF656A054620EA0505204601F055FC9F
:1036400000223946204601F045FD3B4694F82320F0
:103650003046616A00F0E5F84446D3E710B5044609
:1036600000F0D8F8EFF3058333B100206FF00501C7
:1036700000F0CFF8002010BDFFF762FE0028F4D163
:103680002046DFF808C000DFF5E700BF5933000827
:1036900070B504460E4600F0BFF8EFF305834BB15A
:1036A0009CB96FF003056FF00301204600F0B1F8FC
:1036B000284670BDFFF744FE0028F1D12046314670
:1036C000DFF848C000DF0546F2E72378032BE8D196
:1036D000002EE6DB63783BB96FF00201204600F074
:1036E00098F86FF00205E3E704F10C0353E8002FAC
:1036F00042EA060543E8005101B1F7E7204601F030
:10370000C3FA2946204600F088F8D1E7B73500080B
:10371000F8B504460E4617461D4600F07FF8EFF355
:1037200005834BB1ACB96FF003056FF00301204680
:1037300000F06FF82846F8BDFFF702FE0028F1D12F
:10374000204631463A462B46DFF84CC000DF05469E
:10375000F0E72378032BE6D1002DE4D1002EE2DB45
:1037600063783BB96FF00201204600F052F86FF029
:103770000205DFE73A4631462046FFF76DFE054673
:1037800028B103463A46204600F04BF8D2E73A46C5
:10379000204600F047F8EAE7C134000810B50446B7
:1037A00000F041F8EFF305833BB120466FF00501CF
:1037B00000F02FF86FF0050010BDFFF7C1FD0028E5
:1037C000F3D12046DFF804C000DFF5E7DD33000861
:1037D0007047704770477047704770477047704731
:1037E0007047704770477047704770477047704721
:1037F0007047704770477047704770477047704711
:103800007047704770477047704770477047704700
:1038100070477047704770477047704770477047F0
:1038200070477047704770477047704770477047E0
:1038300070477047704770477047704770477047D0
:1038400070477047704770477047704770477047C0
:1038500070477047704770477047704770477047B0
:1038600070477047704770477047704770477047A0
:103870007047EFF310832BB9EFF31180003018BFBE
:103880000120704701207047F8B5574C217A012973
:1038900003D1FFF7A5FF002006E031B14FF0FF3064
:1038A000FFF79CFF4FF0FF30F8BD504D6B6D472B7D
:1038B00002D86FF00A00F3E7EF68002FEED02E8AEF
:1038C000002EEBD09C2204F1080008F0C7FCA4F8FD
:1038D0005460AB68E7652364D5E90B61304600F0BE
:1038E00059F908B1C4F88060D5E90561304600F0A7
:1038F00051F900286BD06667D5E90761304600F0C2
:1039000049F9002867D0A667D5E90961304600F07B
:1039100041F9002863D0E6676E6B46B131683046E6
:10392000D6E9022300F0BBF908B1C4F88460AE6B9D
:1039300046B131683046D6E9022300F0B0F908B14B
:10394000C4F88860EE6B46B131683046D6E9022390
:1039500000F0A5F908B1C4F88C602E6C46B131684E
:103960003046D6E9022300F09AF908B1C4F8906015
:103970006E6C46B131683046D6E9022300F08FF90B
:1039800008B1C4F89460AE6C46B131683046D6E9EF
:10399000022300F084F908B1C4F89860EE6C46B1D7
:1039A00031683046D6E9022300F079F908B1C4F84D
:1039B0009C602D6D45B129682846D5E9022300F0A9
:1039C0006EF908B1C4F8A0500123237261E7D4F85E
:1039D0008030636790E7D4F88030A36794E7D4F829
:1039E0008030E36798E700BF08030020C42C01087B
:1039F000034B10B51C7A2046FFF7F3FE204610BD9E
:103A00000803002038B5264C237A012B06D06FF02E
:103A10000600FFF7E3FE4FF0FF3038BD01F010FE67
:103A200010B94FF0FF30F4E71E4AFF231E4D82F815
:103A3000223092F82230D16863F0FF036868C1F346
:103A40000221DB43B3FA83F3C3F120038B4298BF17
:103A50004B1CFE2101FA03F31449DBB2D37701F0CA
:103A600035FF0028DDD101F06DFF206101F04EFF30
:103A70000F4801F030FA0028D3D001F0E3FA2B68A8
:103A800013F0010F4FF0020306D083F31488237262
:103A9000FFF7A9FE0020C0E7032282F31488F6E7AF
:103AA0000803002000ED00E0C42C0108CF3200081C
:103AB0002403002010B5034CE068FFF795FEE06892
:103AC00010BD00BF0803002008B5FFF788FEEFF324
:103AD000058333B16FF00500FFF780FE6FF005003E
:103AE00008BDFFF7C6FE0028F4D1DFF808C000DFEC
:103AF000F6E700BF8938000808B5EFF31483DB0749
:103B000003D4BDE80840FFF773BFEFF30583002B34
:103B1000F7D1FFF7AEFE0028F3D1DFF808C000DFD1
:103B200008BD00BFF139000808B5FFF75BFEEFF3F1
:103B3000058333B16FF00500FFF750FE6FF005000D
:103B400008BDFFF796FE0028F4D1FFF7D5FF022845
:103B500005D0054B1B6813B15B6803B19847DFF8CC
:103B60000CC000DFECE700BF006A0020053A000847
:103B700008B5EFF305831BB1BDE80840FFF79ABF16
:103B8000FFF777FE0028F7D1DFF804C000DF08BD9B
:103B9000B53A000870B503460C4630B140EA010260
:103BA00012F0070201D1172906D818460022214633
:103BB000FFF70EFE002070BDA1F10804102519606A
:103BC000261845608660225084686560C2600122C4
:103BD000FFF7FEFD0120EEE7F8B518B111B132F0A4
:103BE000030305D000240023FFF7F3FD2046F8BDB2
:103BF00001F10F0400F1080324F0070C1F685E6850
:103C0000FD1A26F00306AD1BAC4504D93D683B46C2
:103C1000002DF3D1E6E745680CEB05060568054481
:103C2000466055F8044C083DA64288BF6E6042EAE3
:103C30000C055E6836B903F108045D602346FFF7A2
:103C4000C8FDD3E726F003069C199F5165601C60F0
:103C50000834F3E738B500B121B90022FFF7BAFD07
:103C6000002038BDA1F1080500F108030022AB4295
:103C70000CD15C6824F003054468641B44605AB9A5
:103C80005A600122FFF7A6FD0120EAE71C681A46E8
:103C9000002CE2D02346EAE71B681360F1E72DE928
:103CA000F0410C4617461D460646F8B1B9B1FAB1C7
:103CB00003B34FF0000C02FB01F83160C0E901C210
:103CC00003EB080CF3607361C0F810C0FFF783FDCD
:103CD0002B46013C06D1A8EB0707EC5101242046F6
:103CE000BDE8F081DA191A601346F2E70446F6E7F8
:103CF0001446F4E71C46F2E738B5044628B92546D1
:103D00000146FFF769FD284638BD031D026853E8E8
:103D1000001F8A4202D8BFF32F8F04E0481C43E8FB
:103D2000000505B1F3E723688B4211D904F11403B0
:103D300053E8005F15B9BFF32F8F04E02A6843E80A
:103D4000002101B1F4E729462046FFF745FDDAE7F7
:103D50000025F8E738B528B1C3688B4202D803695B
:103D60008B4207D86FF003046FF00302FFF735FDB5
:103D7000204638BD031D53E8002F12B9BFF32F8F23
:103D800004E0541E43E8004505B1F4E79AB100F1A0
:103D900014031A680A60BFF35F8F53E8002F0C68A2
:103DA0009442F6D143E8001505B1F2E7002422461B
:103DB000FFF713FDDCE76FF00204F8E7EFF3108381
:103DC0002BB9EFF31180003018BF0120704701209C
:103DD0007047036B30B5E3B1CD780024DA78AA429E
:103DE0000FD31A46C1E901248AB19160A4B1616080
:103DF000283050E8003F5A1C40E8002101B1F8E7A4
:103E000030BD5A681C46002AECD01346E6E7C16272
:103E1000ECE7C1E90133C1620163E9E7D1E90132AD
:103E200023B19A608A681AB153607047C262F9E799
:103E3000036370472DE9F74F8A46074600B131B951
:103E40006FF0030100200024FFF705FD7BE0CE1C8E
:103E5000B0FA80F326F003060C36B6FA86F10B446E
:103E60001F2BEDDD06FB00F8FAB19468D2F8009044
:103E7000D2E904B53CB1A30702D1D368332B05D8EE
:103E80006FF00801DEE7D368002BF9D1BBF1000F1A
:103E900007D01BF0030301D1A84558D96FF00901E1
:103EA000D0E7002DFAD174B901E0914693462A4B30
:103EB000D3F8A000D8B1FFF71FFF0446A0B1012539
:103EC000BBF1000F25D1244B00224146D86F01934E
:103ED000FFF782FE8346B0B935B1019B2146D3F886
:103EE000A00058B1FFF736FF6FF00401AAE70122E6
:103EF0003421D3F88000FFF76FFEDEE7D3F88000AF
:103F0000FFF7A8FEF0E745F002054246002108F061
:103F1000A5F94FF4847332463946A57023800023F7
:103F2000C4F8049004F10C00A360C4E909A3C4E937
:103F30000B335B46FFF7B3FE074B084A2046616828
:103F40001A67FFF78AFC204603B0BDE8F08F002C0B
:103F5000ADD01D46DDE700BF080300205D4000082E
:103F60002DE9F0410E4690461D46044618B10378EF
:103F7000082B00D141B920466FF00301FFF76BFC1D
:103F80006FF00300BDE8F081437833B96FF00201B0
:103F9000FFF761FC6FF00200F4E7836803B35B781E
:103FA000832B1DD1FFF75EFC204600F094FF0546F1
:103FB0000122002101F08EF8284600F0BBFF856841
:103FC0000746626A3146284608F04AF8FB680BB19A
:103FD00083F8008029462046FFF749FC0020D1E7FE
:103FE00004F10C00FFF788FE0746A0B1626A314673
:103FF0000C30002508F034F840F20713394620460B
:104000003B80BD7087F80380FFF7E3FE3146204612
:10401000FFF728FCE2E7CDB1314620462A46FFF7FC
:104020001EFC2946932001F0D5F958B10A4B2046D1
:10403000596900F03DFFEFF30983C3E902686FF0AF
:1040400001009FE72046FFF70BFCF8E731462046CA
:10405000FFF709FC9EE700BF080300202DE9F041AF
:1040600043780446002B79D08678002E3ED0C56870
:104070006B78002B72D0002605F10C07014628460C
:10408000FFF7CCFE66703846FFF764FEAB68002B86
:1040900064D05B78932B61D13846FFF72DFE044640
:1040A00000285BD0284600F016FF0746324631460E
:1040B00001F010F8384600F03DFF876880466A6AD4
:1040C000394604F10C0007F0CBFF40F20713A6704D
:1040D000214623802846D8F80C30E370FFF779FE9C
:1040E00039462846BDE8F041FFF7BCBB85686B78D0
:1040F000A3B3AB684168284643B35B78832B25D1D3
:10410000FFF7B0FB284600F0E6FE07463246314690
:1041100000F0E0FF384600F00DFF866807466A6A47
:1041200004F10C01304607F09BFFFB680BB1E2780D
:104130001A7031462846FFF79AFB0023214605F105
:104140000C006370BDE8F041FFF704BEFFF78AFB87
:1041500021462846BDE8F041FFF73BBEBDE8F081AF
:1041600010B500F1280353E8002F12B9BFF32F8FC9
:1041700004E0511E43E8001404B1F4E70AB900203A
:1041800010BDC06A01230028F9D0821CD2E84F1F5D
:10419000C2E8443F04B1F9E711F0FF0FF0D08068A6
:1041A000F1E700002DE9F0410D4617469846044618
:1041B00018B10378082B00D141B920466FF00301F4
:1041C000FFF749FB6FF00300BDE8F081437833B996
:1041D0006FF00201FFF73FFB6FF00200F4E7FFF71B
:1041E000BFFF0646002848D001462046FFF716FECE
:1041F000626A06F10C01284607F032FF0FB1F3782E
:104200003B70294604F10C0700252046FFF72FFBE1
:10421000314675703846FFF79DFDA3680BB9002045
:10422000D2E75B78932BFAD13846FFF765FD064657
:104230000028F4D0204600F04EFE07462946012211
:1042400000F048FF384600F075FE87688046626AD5
:10425000394606F10C0007F003FF40F20713B57072
:10426000314633802046D8F80C30F370FFF7B1FDAB
:1042700039462046FFF7F6FAD1E7B8F1000F19D01A
:10428000294620464246FFF7F0FA4146832001F0D6
:10429000A1F858B10A4B2046596900F009FEEFF326
:1042A0000983C3E902576FF001008DE72046FFF74D
:1042B000DDFAF8E729462046FFF7DAFA8CE700BF77
:1042C0000803002070B506460D461446FFF7C4FAF1
:1042D000EFF3058333B100206FF00501FFF7BBFA60
:1042E000002070BDFFF76AFD0028F4D13046294652
:1042F0002246DFF808C000DFF3E700BF353E0008C4
:104300002DE9F04104460F4690461D46FFF7A6FAF8
:10431000EFF305834BB1A4B920466FF00301FFF71B
:104320009AFA6FF00300BDE8F081FFF747FD00281F
:10433000F1D12046394642462B46DFF86CC000DFFB
:10434000F1E72378082BE7D1002FE5D0002DE3D14A
:1043500063783BB96FF002012046FFF77CFA6FF0FB
:104360000200E0E704F10C00FFF7C6FC0646A8B126
:10437000626A39460C3007F073FE40F2071330468C
:10438000B570338086F80380C6E9017400F07CFCC8
:1043900020463946FFF765FA2846C4E739462046E5
:1043A000FFF761FADBE700BF613F0008F8B504469C
:1043B0000D4617461E46FFF757FAEFF3058343B144
:1043C0009CB920466FF00301FFF745FA6FF0030038
:1043D000F8BDFFF7F3FC0028F2D1204629463A4603
:1043E0003346DFF864C000DFF2E72378082BE8D11A
:1043F000002DE6D0002EE4D163783BB96FF00201C6
:104400002046FFF728FA6FF00200E1E72046FFF7A9
:10441000A7FE064690B100F10C01626A284607F03B
:104420001FFE0FB1F3783B703046F46000F02CFCB7
:1044300020462946FFF71BFA0020C9E729462046F7
:10444000FFF716FADFE700BFA5410008EFF310837E
:104450002BB9EFF31180003018BF01207047012005
:104460007047000070B500283AD08468D0E9005643
:104470006CB114F0030302D1C2681B2A1AD80024BD
:104480006FF008010020FFF7D0F9204670BDC36827
:10449000002BF4D1144BD3F8940030B901221C2125
:1044A000D3F88000FFF798FB01E0FFF725FC0446F6
:1044B00088B101234FF48272A3700023E67022803A
:1044C0002946656020462376C4E90233C4E90433F3
:1044D000FFF7ADF9D9E76FF00401FFF7A6F9D4E7CC
:1044E00005460646D6E700BF08030020334B70B5EB
:1044F0005D6904460E4635B96FF00701FFF795F97F
:104500004FF0FF3070BD10B10378042B07D0204668
:104510006FF00301FFF789F96FF00300F2E74378CA
:1045200033B96FF00201FFF780F96FF00200E9E79D
:10453000017E69B9EB6AC560C0E9041303B1186173
:1045400001212046EC622176FFF775F90020D9E7BA
:10455000C378DA070BD5C268AA4208D1FF2902D175
:104560006FF00F01DFE70131C9B20176ECE706B366
:104570009B070AD5E06895F9203090F920209A42EF
:1045800003DA80F8203000F0BAFC31462046FFF70D
:1045900050F93146532000F01DFF30B12946204626
:1045A00000F086FC6FF00100ACE72046FFF742F90F
:1045B000F8E72046FFF740F9B7E700BF08030020FF
:1045C00038B5334B04465D6935B96FF00701FFF725
:1045D0002CF94FF0FF3038BD10B10378042B07D011
:1045E00020466FF00301FFF720F96FF00300F2E7B8
:1045F000437833B96FF00201FFF717F96FF002004B
:10460000E9E7C368AB4202D06FF00D01F4E7017E29
:1046100011B96FF00E01EFE70139C9B20176FFF76A
:104620000DF9237E3BBB63690BB122691A612269D4
:104630001AB35361E3789B0705D595F92120EB6AFE
:10464000EBB985F82020A36893B1204600F043FC25
:1046500000220546114600F03DFDEB6A0121E560B0
:104660006361002320462361EC622176FFF7E3F8C3
:10467000002000F001FD0020ADE7EB62DAE7996869
:1046800021B191F920108A42B8BF0A465B69D7E789
:104690000803002010B5044610B10378042B07D09E
:1046A00020466FF00301FFF7C0F86FF0030010BD64
:1046B000437833B96FF00201FFF7B7F86FF00200EB
:1046C000F5E700234370037E7BB36369C0680BB1D9
:1046D00022691A612269D2B15361E3789A070BD536
:1046E00090F92130C26AA2B990F920209A4203D0F1
:1046F00080F8203000F003FCA3689BB1204600F056
:10470000EAFB00226FF0020100F0E4FCF4E7C36270
:10471000E3E7916821B191F920108B42B8BF0B46B5
:104720005269E0E7002000F0A7FCA378DB0706D57C
:10473000084B2146D3F8940030B1FFF70BFB20461D
:10474000FFF77EF80020B2E7D3F88000FFF782FA87
:10475000F5E700BF080300202DE9F04104460026DC
:1047600001270CB9BDE8F081E378D4F814801B0769
:1047700018D5267600212046FFF760F8A3688BB194
:10478000204600F0A8FB00220546114600F0A2FCDE
:10479000EB6AE56001212046C4E90463EC622776F8
:1047A000FFF749F84446DCE710B50446FFF73EF84A
:1047B000EFF3058333B100206FF00501FFF735F803
:1047C000002010BDFFF742FE0028F4D12046DFF89C
:1047D00008C000DFF5E700BF6544000838B50446AF
:1047E0000D46FFF725F8EFF305833BB120466FF048
:1047F0000501FFF71AF86FF0050038BDFFF726FE38
:104800000028F3D120462946DFF804C000DFF4E792
:10481000ED44000810B50446FFF70FF8EFF30583E9
:104820003BB120466FF00501FEF7FFFF6FF005007A
:1048300010BDFFF70BFE0028F3D12046DFF804C0BF
:1048400000DFF5E7C145000810B50446FEF7F7FFA5
:10485000EFF305833BB120466FF00501FEF7E5FF5E
:104860006FF0050010BDFFF7F1FD0028F3D12046E1
:10487000DFF804C000DFF5E795460008EFF310838A
:104880002BB9EFF31180003018BF012070470120D1
:10489000704700F10C03D3E85F0F10B9BFF32F8FFF
:1048A00004E0421EC3E8512F01B1F4E780B20030AA
:1048B00018BF0120704730B500F10C02C189D2E861
:1048C0005F3F994202D8BFF32F8F04E05C1CC2E81F
:1048D000554F05B1F3E7C0899BB2984294BF0020C1
:1048E000012030BDF8B50F464FF6FE73411E064657
:1048F000994201D8B84207D26FF00301002400208A
:10490000FEF79FFF2046F8BD42B39468156844B196
:1049100014F0030302D1D2680F2A0ED86FF00801F9
:10492000ECE7D368002BF9D1134BD3F89800B8B15A
:10493000FFF7E2F90446D0B10123A37040F205125B
:104940000023656022802946A36020460A4B0B4A5B
:10495000A781E6819A66FEF776FFD3E71546E3E77F
:1049600001221021D3F88000FFF736F9E2E76FF05B
:104970000401FEF766FFC5E708030020FD490008B3
:1049800010B5044610B10378052B07D020466FF010
:104990000301FEF756FF6FF0030010BD437833B9F3
:1049A0006FF00201FEF74DFF6FF00200F5E7002304
:1049B0004370836863B1204600F08DFA00226FF0E7
:1049C000020100F087FBA0680028F4D100F054FB3E
:1049D000A378DB0706D5084B2146D3F8980030B101
:1049E000FFF7B8F92046FEF734FF0020D5E7D3F8EB
:1049F0008000FFF72FF9F5E70803002010B5437892
:104A0000044683B1836873B1FFF743FF58B1204672
:104A100000F061FA0022114600F05CFB2046BDE880
:104A20001040FEF712BF10BD38B5054610B103782F
:104A3000052B07D028466FF00301FEF702FF6FF049
:104A4000030038BD437833B96FF00201FEF7F9FE79
:104A50006FF00200F5E784686CB1FEF7F8FE2846B7
:104A600000F039FA0122002100F034FB2846FEF75D
:104A7000ECFE0020E5E7FFF71EFF18B12846FEF721
:104A8000E6FEF6E76FF010012846DFE770B5064650
:104A90000D461446FEF7D6FEEFF3058333B1002032
:104AA0006FF00501FEF7CDFE002070BDFFF7E6FEBA
:104AB0000028F4D1304629462246DFF808C000DF3E
:104AC000F3E700BFE548000810B50446FEF7BEFE58
:104AD000EFF3058343B184B920466FF00301FEF77D
:104AE000B0FE6FF0030010BDFFF7C8FE0028F2D142
:104AF0002046DFF840C000DFF5E72378052BEBD137
:104B000063783BB96FF002012046FEF79AFE6FF022
:104B10000200E8E72046FFF7CEFE38B1204600F05D
:104B2000B3F82046FEF793FE0020DCE76FF010019B
:104B3000EAE700BF294A000810B50446FEF788FEE0
:104B4000EFF305833BB120466FF00501FEF779FED8
:104B50006FF0050010BDFFF791FE0028F3D120464D
:104B6000DFF804C000DFF5E78149000810B5D0E8A0
:104B70005F3F5A1C914200D80022C0E8542F04B174
:104B8000F5E798B210BD000038B51C4C00F0D4FE1B
:104B9000E3680133E360236D03B1984700F0D4F973
:104BA000002000F069FA236C2BB1A26BA1698A4244
:104BB00002D0A163E36338BDE36B0BB1013BE36358
:104BC000E36B002BF7D1237A022BF4D1656A002D19
:104BD000F1D095F9201092F920309942EBD1284676
:104BE00000F083F9A06B00F09DF9A06BFEF704FEC6
:104BF000284600F027FAA563236CDBE708030020B2
:104C000070B5204C04F1560504F15A06B4F854105E
:104C1000D5E85F3F13B9BFF32F8F04E05A1EC5E8F4
:104C2000502F00B1F4E79BB23BB33046FFF79EFF35
:104C3000E36D53F8200000B30378013B062BE5D861
:104C400001A252F823F000BF654C00080D4C00088B
:104C50006B4C00080D4C00086F4C0008734C0008AA
:104C6000774C0008236E9847D0E7636EFBE7A36E8E
:104C7000F9E7E36EF7E7236FF5E70020BDE8704042
:104C800000F0FAB90803002070B5164C0546B4F8D8
:104C9000541004F15602D2E85F3F994202D8BFF3A4
:104CA0002F8F04E0581CC2E8560F06B1F3E79BB201
:104CB000994205D829460220BDE87040FEF73ABA6D
:104CC00004F15800FFF752FFE36D43F82050637A78
:104CD00023B9054B4FF080525A6070BD0123A37277
:104CE000FBE700BF0803002000ED00E0EFF31083B6
:104CF0002BB9EFF31180003018BF0120704701205D
:104D0000704710B10378012B00D07047C068F8E7F6
:104D100001230C4A90F9201043701C32936810B4A0
:104D20001BB193F920408C4208DCC0E9023290604C
:104D300003B1D8605DF8044BFEF75EBD1A469B6870
:104D4000EEE700BF08030020034B10B55C69204666
:104D5000FEF74EFD204610BD0803002008B5FEF703
:104D60003FFADFF810C000DF4FF0FF310020FEF700
:104D70003CFDFEE7DD540008930710B502F0010486
:104D800022D400F1280384B153E8000F00EA0102A5
:104D90008A4203D0BFF32F8F002005E020EA0102F2
:104DA00043E8002404B1EFE710BD53E8000F0842C8
:104DB00003D1BFF32F8F002005E020EA010243E872
:104DC000002404B1F1E7EFE7806A01EA00031CB1B7
:104DD000994218BF0020E7E7002B08BF0020E3E757
:104DE000084A0021136B10B53BB94FF0FF34C0E9FE
:104DF0000431C46121B1086110BD19461B69F3E794
:104E00001063F9E70803002010B5C4694269631C08
:104E100010D11AB9104B1B6B98420AD1036903B128
:104E20005A6142691AB113610023436101E00A4AE1
:104E3000136310BD1AB9084BDB6A8342F9D10369C9
:104E40001BB1D9695A612144D9614269002AEAD16A
:104E5000014AD362EDE700BF08030020002310B52C
:104E60004370044683789A0708D513F0100F016B3E
:104E70000E4B0FD0D3F88400FEF76CFFA378DB074E
:104E800012D50A4B2146D3F8880038B1BDE810404E
:104E9000FEF760BF586FFEF7DDFEEFE7D3F8800046
:104EA000BDE81040FEF7D6BE10BD00BF08030020CD
:104EB00010B561B191F9202083681BB193F92040AE
:104EC000944205DAC1E90230816003B1D96010BDB6
:104ED00018469B68F1E783682BB19A68826002B13B
:104EE000D0600022DA6018467047C36833B1826828
:104EF0009A60826802B1D3600023C360704710B526
:104F00000146044664B12378012B07D00846FFF719
:104F1000ECFF2046BDE81040FFF7CABFE468F1E7A8
:104F200010BD00000123014643700148FFF7C0BFD8
:104F30002403002090F82230826B13F0100F0CBF76
:104F4000602020201044704738B52C4DEC6A4CB3DB
:104F5000E369013BE3612BBB6378532B36D008D860
:104F6000332B2AD0432B2BD0132B07D1FEF74FFC2A
:104F700004E0732B36D016D8632B2DD02046FFF7D4
:104F8000D9FF01682046FEF736FC2046FFF7ADFF4B
:104F9000FFF7C8FF246924B1E369002BDCD00023AC
:104FA0006361EC6238BD832B22D0932BE6D120467F
:104FB000FFF7A7FEFEF754FCE0E7FEF724FCDDE771
:104FC0002046FFF79EFEFEF72BFCD7E72046FFF7B3
:104FD00098FEFEF72FFCD1E72046FFF792FEFEF782
:104FE00033FCCBE72046FFF78CFEFEF733FCC5E72A
:104FF0002046FFF786FEFEF739FCBFE708030020D6
:10500000044B1B682BB11B691BB1034A9269506C9E
:1050100018477047006A002008030020074B5969B1
:1050200051B10B6B8A6B934203D21A68044B9A42BC
:1050300002D00120FEF77EB8704700BF08030020B1
:10504000A52E5AE2022310B543700446084B98611E
:10505000FFF7E4FF2046FEF7D0FB064B1B682BB1A1
:105060001B691BB1606CBDE81040184710BD00BF44
:1050700008030020006A0020154B10B5596904464A
:105080001A7AA8B9022A21D101B35C6AF4B194F961
:10509000202091F920309A4218DD2046FFF725FFA5
:1050A0000846FFF735FE2046BDE81040FFF7CABFAF
:1050B000022A06D129B190F9202091F920309A4294
:1050C000EEDC2046BDE81040FFF72CBF10BD00BF4E
:1050D0000803002070B504460E461546FEF78BFB0C
:1050E0002046FFF727FF06602046FFF78DFE1DB123
:1050F000BDE87040FFF7C0BFBDE87040FFF712BFCA
:1051000038B543780446332B13D190F82320416AF5
:10511000FFF732FE054660B1014600222046FFF748
:10512000D9FF2A4694F82310606ABDE83840FEF79C
:105130006BBB38BD70B5044620B10378012B01D19B
:10514000002908DA6FF003056FF003012046FEF72F
:105150004CFB284670BD437813F0FB0F06D16FF06F
:1051600002016FF00205FEF740FBF2E700F12803B1
:1051700053E8002F42EA010543E8005606B1F7E77D
:105180004378332B19D190F82320416AFFF7F4FDBF
:10519000064690B194F82330014601229B0756BF82
:1051A000656A054620EA05052046FFF793FF32466B
:1051B00094F82310606AFEF727FB29462046FEF785
:1051C0001FFBC6E72DE9F04F85B08246CDE90131DE
:1051D00040B96FF003010024FEF707FB204605B03D
:1051E000BDE8F08F002A45D094689769D2E904653C
:1051F00044B1A30702D1D368472B06D86FF008014A
:105200000020E8E7D368002BF8D13EB1700702D147
:10521000002D40F0C7806FF00A01F1E72FB17B1E2F
:10522000372B03D96FF00B01EAE71827002D40F068
:10523000BD80D2E9009300934CBB604BD3F888004B
:10524000F0B1FEF759FD0446002800F0A1804FF0B0
:105250000108002E36D1DFF864B1DDB9584ADBF819
:105260008400556DB0B1FEF747FDD8B148F0100885
:10527000064623E091461827154616460092DCE7BD
:1052800001224821D3F88000FEF7A6FCDBE74FF0AF
:105290000008DEE732462946DBF87400FEF79CFC86
:1052A0000028E5D1B8F1000F66D0DBF88820002A8D
:1052B0005BD021461046FEF74DFD002448F0020861
:1052C000002C65D040F201137FB2FD2284F80280E9
:1052D00023809DF80030C4F80490E370002384F824
:1052E000207084F8233084F8217084F822206563CC
:1052F000C4E90233C4E90433C4E90633C4E9093319
:10530000C4E90B36A5F140033344C4E90E3A2D4BF2
:1053100033602B4B1B685B0730D4A36B00201A460D
:1053200003F1340143F8040B9942FBD1264B20468C
:10533000C2E90D3A4FF08073D363029B13621F4B97
:10534000224AE16B1A66FEF752FA214B1B6833B30F
:105350009B6823B30199204698476064002C3FF472
:105360003DAF2046FFF788FE38E72146DBF8800096
:105370000392FEF76FFCA0E744469FE7AD084FF0AD
:10538000CC33113D002DC8D046F8043F013DF9E76C
:105390006FF004010020FEF728FA0024D5E7019BF6
:1053A0006364DBE7002F7FF43AAF182769077FF4C7
:1053B00032AF472D3FF63DAF2DE700BF0803002079
:1053C000C42C0108A52E5AE25D4D000801510008C9
:1053D000006A0020F8B51B4B07460D461A7A1E4698
:1053E000022A2BD15C695CB3586A70B12046FEF783
:1053F00001FA6B1C677009D12046FFF7F1FC1248D7
:10540000FFF769FDFFF71EFE0120F8BDF36A0022D9
:1054100013B1D9698D420BD2E561C4E904325AB1A6
:105420001461002BEBD0DA695C61551BDD61E6E7A6
:105430001A466D1A1B69EBE7F462F2E70020E4E715
:105440002046E2E70803002024030020224B2DE938
:10545000F0415E6905460F4690464EB94FF0FF3465
:105460006FF007013046FEF7C0F92046BDE8F08135
:10547000002807DA6FF003013046FEF7B6F96FF047
:105480000304F2E70A4601463046FFF775FC04467E
:1054900028B1024639462846FEF7B6F9E5E7B8F1E5
:1054A000000F11D0394628464246FEF7ABF9756227
:1054B00086F8237041463320FFF78CFF08B9FEF7CA
:1054C000A2F96FF00104D0E739462846FEF79DF9AE
:1054D0006FF00204C9E700BF0803002038B51B4D78
:1054E0006C69002C30D02B7A022B2DD16B6A5BB308
:1054F000E06AFFF731F9A06930B100221146FFF7E9
:10550000E9FDA069FEF775F9EFF309831048A3637D
:10551000FFF7E1FCFFF796FD00236B61E378DB0703
:1055200001D5A3693BB12046FFF798FC2046BDE8B2
:105530003840FEF763B90422E36062706B6BA360CE
:1055400003B1DC606C63F1E738BD00BF08030020E5
:105550002403002038B5044610B10378012B08D08D
:105560006FF003056FF003012046FEF73EF9284671
:1055700038BD437803F00F03022B07D0032B42D032
:10558000012B45D1FFF7B1FC00250DE0294B1A7A1C
:10559000022A02D15B6A002BF6D16FF0020120468D
:1055A0006FF00205FEF721F9234B1B681BB1DB6886
:1055B0000BB1606C9847002DD9D1E06AFFF7CCF8A9
:1055C000A06930B12A462946FFF784FDA069FEF79D
:1055D00010F96378022B1ED1EFF309831748A363F8
:1055E000FFF779FCFFF72EFD124B00225A61E3789A
:1055F000DB0701D5A36993B12046FFF72FFC2046B6
:10560000FEF7FCF8B3E7FFF770FCFFF7FDFBBBE725
:105610006FF00201C4E70020FFF72EFDE7E7042248
:10562000E360044B62705A6BA26002B1D4605C63A9
:10563000E5E700BF08030020006A002024030020E3
:1056400070B50F4D0F4EAB6ABBB9B26D19460E481F
:10565000FFF7B8FD041CA86218BF0124736E53B194
:10566000AB6C43B9F26D19460848FFF7ABFD002853
:10567000A86408BF0024204670BD0124EEE700BFE7
:1056800008030020C42C01082D31000881580008AF
:10569000F8B507460E4615461C46FEF7A7F8EFF389
:1056A000058333B100206FF00501FEF79EF800205E
:1056B000F8BDFFF71BFB0028F4D1384631462A46D7
:1056C0002346DFF808C000DFF2E700BFC55100083D
:1056D0000023FFF7DDBF000008B5EFF3058323B11A
:1056E0000020FEF785F8002008BDFFF7FFFA00282C
:1056F000F6D1DFF808C000DFF6E700BF494D00082B
:1057000010B50446FDF773FDEFF305833BB120466A
:105710006FF00501FEF769F86FF0050010BDFFF7A7
:10572000E5FA0028F3D12046DFF804C000DFF5E7F2
:105730005555000870B504460E46FEF760F8EFF3C5
:1057400005834BB19CB96FF003056FF00301204650
:10575000FEF74BF8284670BDFFF7C8FA0028F1D1D4
:1057600020463146DFF84CC000DF0546F2E72378DB
:10577000012BE8D1002EE6DB637813F0FB0F07D195
:105780006FF002012046FEF730F86FF00205E1E706
:1057900004F1280353E8002F42EA060543E80051CC
:1057A00001B1F7E72046FFF76FFA29462046FEF7DA
:1057B00027F8CFE73551000870B506460D46144668
:1057C000FEF71FF8EFF305833BB100206FF00501F2
:1057D000FEF70BF86FF0050070BDFFF787FA0028A1
:1057E000F3D1304629462246DFF804C000DFF3E754
:1057F0004D5400080C4A30B5536C002413B11D6998
:105800008D420AD90161C0E902431BB11D6998604C
:10581000691A19612CB1E06030BD1C46491BDB6878
:10582000ECE75064F8E700BF0803002070B5134DA3
:105830006C6C04B323690126013B23612369D3B94E
:10584000E3680BB1A2689A606B64002304F118014D
:10585000E86C1A46FEF754FD18B121460320FDF707
:1058600069FCE378012B07D161692046FFF7C2FF8D
:105870006C6C002CE2D170BD6670F9E70803002063
:105880000F4B13B50F4C08211A6E586EFEF71AFD18
:10589000E06490B10C4B23654FF0FF330022694662
:1058A000E06CFEF783FD0028F6D1DDE90001FDF78D
:1058B000AFFFDDE900309847EEE702B010BD00BF52
:1058C000C42C0108080300202D580008A8B10C4B77
:1058D0001B68B3FBF0F00138B0F1807F0DD2094BAB
:1058E000FF22A3F54F6383F8132D06221A60586038
:1058F00000209860044B187070474FF0FF307047DD
:10590000B003002000ED00E0D04D0020074B1A78D6
:105910002AB100221A704FF08062054B5A60054A86
:10592000136843F001031360704700BFD04D00209F
:1059300000ED00E010E000E0014B1B68704700BF85
:1059400010E000E04FF0FF307047000038B5036909
:105950000446051D2BB940F239220C490C48FCF7CE
:1059600037FC236928461B68984704F154004FF020
:10597000FF31FDF797F9002304F140006361012333
:1059800084F8C030BDE83840FDF7D0B9A41F010845
:10599000F71F0108024B1B6803B11847704700BF8F
:1059A000D44D00202DE9F84FDDE90A591F464FF08C
:1059B000000A6B07B5FA85F30446884614BF25F044
:1059C00007062E464FEA5313934618BF0836C0F811
:1059D00014A080F83C30482280F8C0A051467830AE
:1059E000751B06F03BFC2422514604F1180006F01A
:1059F00035FC7D1B074B25F00705C4F830B0D145B9
:105A000008BF9946A662E562C4F81890C4F83480CD
:105A1000BDE8F88FA92D010813B5049CCDE9003429
:105A200013460A460021FFF7BDFF02B010BD70B556
:105A300000F1540504464FF0FF312846FDF732F9D6
:105A400004F140006669FDF771F90023636194F881
:105A5000C0302BB100242846FDF72EF9204670BD3A
:105A6000012384F8C030002EF4D03046FFF748FE02
:105A70000446F0E738B500F1540504464FF0FF3115
:105A80002846FDF70FF963697BB194F87940284601
:105A9000FDF712F9332C24D00FD8022C1FD006D8D2
:105AA000ECB1012C1BD0102419E00424EFE7132CD7
:105AB00014D0232CF7D1042411E0632C15D005D881
:105AC000432C10D0532CEED1072408E0832C0ED0A9
:105AD000932C0ED0732CE6D1092400E00324204639
